:020000040800F2
:1030000000A00020353C000871380008773800081F
:103010007D38000883380008893800080000000067
:103020000000000000000000000000008F380008D1
:103030009D38000800000000AB380008B9380008CF
:10304000853C0008853C0008853C0008853C00085C
:10305000853C0008853C0008853C0008853C00084C
:10306000853C0008853C0008853C0008853C00083C
:10307000853C0008853C0008853C0008853C00082C
:10308000853C0008853C0008853C000800000000E5
:10309000000000000000000000000000853C000867
:1030A000853C0008853C0008853C0008853C0008FC
:1030B000853C00080000000000000000853C00087E
:1030C000853C0008853C0008853C0008853C0008DC
:1030D000853C0008853C0008853C0008853C0008CC
:1030E000853C0008853C000800000000000000004E
:1030F00000000000000000000000000000000000D0
:1031000000000000000000000000000000000000BF
:103110000000000000000000C538000800000000AA
:10312000853C0008853C0008853C0008853C00087B
:10313000853C0008000000000000000000000000C6
:10314000853C0008853C0008853C0008853C00085B
:10315000853C0008853C0008853C0008853C00084B
:10316000853C0008853C00080000000000000000CD
:1031700000000000853C0008000000000000000086
:0C318000853C0008853C0008853C0008E8
:1031900010B5054C237833B9044B13B10448AFF391
:1031A00000800123237010BD880000200000000073
:1031B0001077000808B5034B1BB103490348AFF370
:1031C000008008BD000000008C000020107700087F
:1031D00001F0FF01102A2BDB10F0070F08D010F8C8
:1031E000013B013A8B422DD010F0070F42B3F6D1CC
:1031F000F0B441EA012141EA014122F007047FF0E5
:1032000000070023F0E80256083C85EA010586EA3B
:10321000010685FA47F5A3FA87F586FA47F6A5FA77
:1032200087F68EB9EED1F0BC01F0FF0102F0070283
:1032300032B110F8013B013A83EA010313B1F8D12E
:103240000020704701387047002D06BF354603380F
:10325000073815F0010F07D1013015F4807F02BF48
:10326000013015F4C03F0130F0BC0138704700BF99
:1032700053B94AB9002908BF00281CBF4FF0FF31DD
:103280004FF0FF3000F070B9ADF1080C6DE904CEDD
:1032900000F006F8DDF804E0DDE9022304B0704731
:1032A0002DE9F047089E0D4604460F46002B4AD1F3
:1032B0008A42944665D9B2FA82F343B102FA03FC1A
:1032C000C3F120029F4020FA02F217439C404FEACC
:1032D0001C4E1FFA8CF5B7FBFEF1220C0EFB11778A
:1032E00042EA074201FB05F090420AD91CEB0202B8
:1032F00001F1FF3780F01C81904240F219810239C0
:103300006244121AA4B2B2FBFEF00EFB102244EA91
:10331000024400FB05F5A5420AD91CEB040400F1A8
:10332000FF3280F00781A54240F2048164440238F4
:1033300040EA0140641B00211EB1DC400023C6E9C5
:103340000043BDE8F0878B4208D9002E00F0ED80E5
:103350000021C6E900050846BDE8F087B3FA83F10D
:10336000002949D1AB4202D3824200F2F880841A8C
:1033700065EB030201201746002EE2D0C6E90047A4
:10338000DFE702B9FFDEB2FA82F3002B40F0908053
:103390008A1A4FEA1C471FFA8CFE0121B2FBF7F58F
:1033A00007FB1520220C42EA00420EFB05F090427A
:1033B00008D91CEB020205F1FF3802D2904200F25C
:1033C000CB804546121AA4B2B2FBF7F007FB1022DD
:1033D00044EA02440EFB00FEA64508D91CEB040497
:1033E00000F1FF3202D2A64500F2BB801046A4EBEA
:1033F0000E0440EA05409FE7C1F120078B4022FA06
:1034000007FC4CEA030C05FA01F420FA07F3FD402F
:103410004FEA1C492343B5FBF9F81FFA8CFE09FB60
:1034200018551C0C44EA054408FB0EF5A54202FAA7
:1034300001F200FA01F00BD91CEB040408F1FF3A89
:1034400080F08880A54240F28580A8F1020864449B
:10345000641B9DB2B4FBF9F309FB134445EA044431
:1034600003FB0EFEA64508D91CEB040403F1FF354F
:103470006CD2A6456AD9023B644443EA0843A3FBE5
:103480000295A4EB0E04AC42C846AE4656D353D0C8
:1034900056B1B0EB080264EB0E0404FA07F7CA4019
:1034A000CC401743C6E9007418460021BDE8F087F8
:1034B000C3F1200102FA03FC20FA01F225FA01F11E
:1034C0009D402A434FEA1C471FFA8CFEB1FBF7F0E0
:1034D00007FB1015110C41EA054100FB0EF58D426A
:1034E00004FA03F408D91CEB010100F1FF382FD2D4
:1034F0008D422DD902386144491B92B2B1FBF7F5D8
:1035000007FB151142EA014205FB0EF1914208D971
:103510001CEB020205F1FF3816D2914214D9023D8C
:103520006244521A45EA004138E73146304608E71E
:103530003946E6E61046FBE64845A9D2B9EB020853
:1035400065EB0C0E013BA3E74546EAE72B4694E703
:103550004046D1E7D0467BE7023D624432E7084669
:103560000AE76444023842E7704700BF80B586B07E
:1035700000AF0023BB603E233B6101237B6100F071
:1035800075FD00237B603A1D07F1080311461846BC
:1035900000F042FE0346002B01D0012300E000238F
:1035A00018461837BD4680BD80B588B000AF78603A
:1035B000194BFB6107F1080300221A605A609A60F8
:1035C000DA60164B164A1A60144A7B685360134B34
:1035D00001229A60114A07F1080307CA83E807002D
:1035E0000023BB6110E0BB69DB0020333B44183B88
:1035F000D3E90023F969002000F0CCFCFB69083313
:10360000FB61BB690133BB61BB69012BEBD900BF17
:1036100000BF2037BD4680BD00F00108A400002097
:103620005342414E80B500AFFFF7A0FF4FF460401A
:10363000FFF7BAFF024803F0F5F900BF80BD00BFF5
:103640002877000880B588B000AF07F10C0300228E
:103650001A605A609A60DA601A611D4BDB6C1C4A72
:1036600043F00403D3641A4BDB6C03F00403BB6028
:10367000BB68174BDB6C164A43F00103D364144B51
:10368000DB6C03F001037B607B68114BDB6C104A41
:1036900043F00203D3640E4BDB6C03F002033B6088
:1036A0003B68002208210B4801F04CF80823FB601E
:1036B00001233B6100237B610023BB6107F10C0305
:1036C0001946044800F0CCFE00BF2037BD4680BD3F
:1036D000001002400004004880B582B000AF78605E
:1036E000391D4FF6FF730122034802F0DFFB7B68B0
:1036F00018460837BD4680BD0401002080B582B061
:1037000000AF78600A4B1B781A460821094801F07F
:1037100019F8074B1B78012B14BF01230023DBB2E0
:103720001A46034B1A7000BF0837BD4680BD00BF64
:10373000B00000200004004880B500AF00F0A3FAFC
:1037400000F016F8074B084A9A60FFF77BFF00F07D
:10375000D7F900F077F9054802F0F4F8FFF762FFB7
:10376000FEE700BF00ED00E000300008B8000020D8
:1037700080B596B000AF07F114034422002118462B
:1037800003F0A5F93B4600221A605A609A60DA609D
:103790001A614FF4007001F00BF80346002B01D0C2
:1037A00000F03CF800F0E6FF1B4BD3F890301A4ACB
:1037B00023F01803C2F8903014237B610123FB61CE
:1037C00001233B6300237B63A023BB6300233B6493
:1037D00007F11403184601F041F80346002B01D00D
:1037E00000F01CF80F233B6000237B600023BB60CC
:1037F0000023FB6000233B613B460121184601F09A
:103800008FFC0346002B01D000F008F802F032F8DC
:1038100000BF5837BD4680BD0010024080B400AFE5
:1038200072B600BFFEE7000080B483B000AF0F4B5C
:103830001B6E0E4A43F0010313660C4B1B6E03F024
:1038400001037B607B68094B9B6D084A43F0805302
:103850009365064B9B6D03F080533B603B6800BF54
:103860000C37BD465DF8047B704700BF0010024076
:1038700080B400AFFEE780B400AFFEE780B400AFD5
:10388000FEE780B400AFFEE780B400AFFEE780B48F
:1038900000AF00BFBD465DF8047B704780B400AF49
:1038A00000BFBD465DF8047B704780B400AF00BF29
:1038B000BD465DF8047B704780B500AF00F038FA74
:1038C00000BF80BD80B500AF024802F08FF800BF96
:1038D00080BD00BFB800002080B586B000AFF860A2
:1038E000B9607A6000237B610AE0AFF30080014693
:1038F000BB685A1CBA60CAB21A707B6901337B611B
:103900007A697B689A42F0DB7B6818461837BD46B7
:1039100080BD80B586B000AFF860B9607A600023E2
:103920007B6109E0BB685A1CBA601B781846FFF738
:10393000D3FE7B6901337B617A697B689A42F1DB54
:103940007B6818461837BD4680BD80B483B000AF91
:1039500078604FF0FF3318460C37BD465DF8047BA6
:10396000704780B483B000AF786039603B684FF433
:1039700000525A60002318460C37BD465DF8047BA0
:10398000704780B483B000AF7860012318460C37CD
:10399000BD465DF8047B704780B485B000AFF86029
:1039A000B9607A60002318461437BD465DF8047B81
:1039B0007047000080B586B000AF7860144A154BA0
:1039C000D31A7B617B693B61134B1B68002B02D1CF
:1039D000114B124A1A60104B1A687B6813443A69FB
:1039E0009A4207D203F0C2F803460C221A604FF045
:1039F000FF3309E0084B1B68FB60074B1A687B68C4
:103A00001344054A1360FB6818461837BD4680BD4D
:103A100000A0002000040000B4000020E00200200C
:103A200080B400AF064BD3F88830054A43F47003E6
:103A3000C2F8883000BFBD465DF8047B704700BF08
:103A400000ED00E080B584B000AF3B1D00221A609D
:103A50005A609A60154B164A1A60144B40F2E732CE
:103A60005A60124B00229A60104B47F6FF42DA6010
:103A70000E4B00229A610D4801F00CFF0346002B0B
:103A800001D0FFF7CBFE00237B600023FB603B1DD2
:103A90001946064802F038F90346002B01D0FFF71B
:103AA000BDFE00BF1037BD4680BD00BFB80000207E
:103AB0000010004080B584B000AF78607B681B6860
:103AC0000D4A934213D10D4B9B6D0C4A43F01003EA
:103AD00093650A4B9B6D03F01003FB60FB680022AB
:103AE0000021362000F01FFA362000F038FA00BF1F
:103AF0001037BD4680BD00BF0010004000100240DE
:103B000080B500AF144B154A1A60134B4FF4E132E5
:103B10005A60114B00229A600F4B0022DA600E4B64
:103B200000221A610C4B0C225A610B4B00229A6145
:103B3000094B0022DA61084B00221A62064B002270
:103B40005A62054802F064F90346002B01D0FFF7E2
:103B500065FE00BF80BD00BF04010020004400409E
:103B600080B596B000AF786007F1440300221A6078
:103B70005A609A60DA601A6107F11003342200215A
:103B8000184602F0A4FF7B681B68284A934248D17C
:103B900002233B610023BB6107F11003184601F0CB
:103BA000E3FC0346002B01D0FFF738FE204B9B6D52
:103BB0001F4A43F4003393651D4B9B6D03F40033A0
:103BC000FB60FB681A4BDB6C194A43F00103D364BA
:103BD000174BDB6C03F00103BB60BB6804237B6401
:103BE0000223BB640023FB6403233B6507237B653F
:103BF00007F1440319464FF0904000F031FC4FF4B8
:103C000000437B640223BB640023FB6403233B6506
:103C100003237B6507F1440319464FF0904000F001
:103C20001FFC00BF5837BD4680BD00BF00440040A8
:103C300000100240DFF834D0FFF7F2FE0C480D49C7
:103C40000D4A002302E0D458C4500433C4188C42F7
:103C5000F9D30A4A0A4C002301E013600432A2425D
:103C6000FBD302F089FFFFF767FDFEE700A000200D
:103C70000000002088000020C07700088800002095
:103C8000DC020020FEE780B582B000AF0023FB71AC
:103C9000032000F03DF9002000F00EF80346002B51
:103CA00002D00123FB7101E0FFF7BEFDFB7918464E
:103CB0000837BD4680BD000080B584B000AF786095
:103CC0000023FB73174B1B78002B23D0164B1A686D
:103CD000144B1B7819464FF47A73B3FBF1F3B2FB24
:103CE000F3F3184600F049F90346002B0FD17B6827
:103CF0000F2B09D8002279684FF0FF3000F013F93C
:103D00000A4A7B68136007E00123FB7304E0012388
:103D1000FB7301E00123FB73FB7B18461037BD46A4
:103D200080BD00BF0800002000000020040000202B
:103D300080B400AF064B1B781A46064B1B68134431
:103D4000044A136000BFBD465DF8047B704700BFA6
:103D5000080000208C01002080B400AF034B1B68DA
:103D60001846BD465DF8047B704700BF8C010020FB
:103D700080B485B000AF78607B6803F00703FB6018
:103D80000C4BDB68BB60BA684FF6FF031340BB60A7
:103D9000FB681A02BB68134343F0BF6343F400336C
:103DA000BB60044ABB68D36000BF1437BD465DF8F2
:103DB000047B704700ED00E080B400AF044BDB688B
:103DC0001B0A03F007031846BD465DF8047B7047E5
:103DD00000ED00E080B483B000AF0346FB7197F9BB
:103DE0000730002B0BDBFB7903F01F02074997F923
:103DF00007305B09012000FA02F241F8232000BFDE
:103E00000C37BD465DF8047B704700BF00E100E061
:103E100080B483B000AF03463960FB7197F9073077
:103E2000002B0ADB3B68DAB20C4997F90730120124
:103E3000D2B20B4483F800230AE03B68DAB20849A7
:103E4000FB7903F00F03043B1201D2B20B441A7644
:103E500000BF0C37BD465DF8047B704700E100E011
:103E600000ED00E080B489B000AFF860B9607A601E
:103E7000FB6803F00703FB61FB69C3F10703042B35
:103E800028BF0423BB61FB690433062B02D9FB69FD
:103E9000033B00E000237B614FF0FF32BB6902FA75
:103EA00003F3DA43BB681A407B699A404FF0FF3155
:103EB0007B6901FA03F3D9437B680B40134318462F
:103EC0002437BD465DF8047B7047000080B582B0A2
:103ED00000AF78607B68013BB3F1807F01D30123A1
:103EE0000FE00A4A7B68013B53600F214FF0FF301F
:103EF000FFF78EFF054B00229A60044B07221A60E1
:103F0000002318460837BD4680BD00BF10E000E022
:103F100080B582B000AF78607868FFF729FF00BFF6
:103F20000837BD4680BD80B586B000AF0346B96096
:103F30007A60FB7300237B61FFF73EFF78617A684C
:103F4000B9687869FFF78EFF024697F90F3011467E
:103F50001846FFF75DFF00BF1837BD4680BD80B52E
:103F600082B000AF0346FB7197F907301846FFF7A0
:103F700031FF00BF0837BD4680BD80B582B000AFBD
:103F800078607868FFF7A2FF034618460837BD46F9
:103F900080BD000080B586B000AFF860B960C7E9A9
:103FA000002300233B612F4B1B78012B01D10223FF
:103FB00053E02C4B01221A704CF2503000F078F88C
:103FC0000346FB75FB7D002B43D1264B00225A6034
:103FD000254B1B6803F48063002B09D0224B1B6820
:103FE000214A23F4806313601E4B02221A7702E0F9
:103FF0001C4B00221A77FB68002B07D1D7E900235E
:10400000B86800F0ADF801233B6110E0FB68012BBC
:1040100002D0FB68022B0AD13B681946B86800F051
:10402000C5F8FB68022B02D14FF480233B614CF2B0
:10403000503000F03DF80346FB753B69002B06D07D
:10404000094B5A693B69DB43074913404B6100F058
:10405000BDF9044B00221A70FB7D18461837BD4687
:1040600080BD00BF0C0000200020024080B483B05F
:1040700000AF0023FB710B4B5B69002B0BDA094B84
:10408000094A9A60074B094A9A60064B5B69002B04
:1040900001DA0123FB71FB7918460C37BD465DF848
:1040A000047B70470020024023016745AB89EFCDB8
:1040B00080B584B000AF7860FFF74EFEF8600DE089
:1040C0007B68B3F1FF3F09D0FFF746FE0246FB686D
:1040D000D31A7A689A4201D8032336E01D4B1B6934
:1040E00003F48033002BEBD11A4B1A691A4B13409F
:1040F000BB60BB68002B1ED0184B5A68BB681343CB
:10410000164A5360BB6803F04043002B07D0114BA5
:104110009A69BB6803F040430E4913438B61BB6847
:1041200023F04043002B04D00A4ABB6823F04043ED
:104130001361012309E0074B1B6903F00103002B06
:1041400002D0044B01221A61002318461037BD46E5
:1041500080BD00BF00200240FAC302000C00002016
:1041600080B485B000AFF860C7E900230E4B5B69EF
:104170000D4A43F001035361FB683A681A60BFF3CC
:104180006F8F00BFD7E900014FF000024FF000032E
:104190000A000023F968043113460B6000BF14378E
:1041A000BD465DF8047B70470020024080B489B0B2
:1041B00000AF786039604023FB777B68BB613B6868
:1041C0007B61144B5B69134A43F480235361EFF323
:1041D0001083FB60FB683B6172B600BF7B691A68A5
:1041E000BB691A60BB690433BB617B6904337B61C3
:1041F000FB7F013BFB77FB7F002BEFD13B69BB6073
:10420000BB6883F3108800BF00BF2437BD465DF84C
:10421000047B70470020024080B584B000AF786016
:104220003960474B1B78012B01D1022383E0444BBB
:1042300001221A704CF25030FFF73AFF0346FB732D
:10424000FB7B002B73D13E4B00225A603D4B1B6819
:1042500003F40073002B13D03A4B1B6803F4806304
:10426000002B09D0374B1B68364A23F48063136058
:10427000334B03221A7716E0314B01221A7712E0F2
:10428000304B1B6803F48063002B09D02D4B1B6857
:104290002C4A23F480631360294B02221A7702E030
:1042A000274B00221A777B681B68012B11D17B6892
:1042B0005B68184600F048F84CF25030FFF7F8FE03
:1042C0000346FB731F4B5B691E4A23F004035361D3
:1042D0002BE03B684FF0FF321A607B689B68BB6045
:1042E0001BE07B685B681946B86800F04BF84CF23D
:1042F0005030FFF7DDFE0346FB73124B5B69114A3A
:1043000023F4FD735361FB7B002B03D03B68BA6839
:104310001A600AE0BB680133BB607B689A687B68FF
:10432000DB681344BA689A42DBD300F04FF8044BC1
:1043300000221A70FB7B18461037BD4680BD00BFB7
:104340000C0000200020024080B483B000AF7860F1
:104350007B6803F00103002B05D0094B5B69084A19
:1043600043F004035361064B5B69054A43F4803311
:10437000536100BF0C37BD465DF8047B704700BF3A
:104380000020024080B483B000AF786039600E4BEB
:104390005B6923F4FC727B68DB0003F4FF630A496A
:1043A00013434B61084B5B69074A43F002035361B7
:1043B000054B5B69044A43F48033536100BF0C37FB
:1043C000BD465DF8047B70470020024080B483B096
:1043D00000AF214B1B7FFB71FB79012B02D0FB79D6
:1043E000032B17D11D4B1B681C4A23F40073136069
:1043F0001A4B1B68194A43F400631360174B1B6880
:10440000164A23F400631360144B1B68134A43F4E9
:1044100000731360FB79022B02D0FB79032B11D1BF
:104420000E4B1B680D4A43F4805313600B4B1B6803
:104430000A4A23F480531360084B1B68074A43F46D
:1044400080631360044B00221A7700BF0C37BD460F
:104450005DF8047B704700BF0C0000200020024084
:1044600080B487B000AF7860396000237B614EE193
:104470003B681A6801217B6901FA03F31340FB6072
:10448000FB68002B00F040813B685B6803F003038E
:10449000012B05D03B685B6803F00303022B30D18E
:1044A0007B689B683B617B695B00032202FA03F334
:1044B000DB433A6913403B613B68DA687B695B0028
:1044C00002FA03F33A6913433B617B683A699A60E5
:1044D0007B685B683B6101227B6902FA03F3DB4383
:1044E0003A6913403B613B685B681B0903F00102BA
:1044F0007B6902FA03F33A6913433B617B683A69CB
:104500005A603B685B6803F00303032B17D07B689A
:10451000DB683B617B695B00032202FA03F3DB4348
:104520003A6913403B613B689A687B695B0002FA19
:1045300003F33A6913433B617B683A69DA603B688D
:104540005B6803F00303022B23D17B69DA087B68E5
:10455000083253F822303B617B6903F007039B006C
:104560000F2202FA03F3DB433A6913403B613B68D5
:104570001A697B6903F007039B0002FA03F33A69A7
:1045800013433B617B69DA087B680832396943F879
:1045900022107B681B683B617B695B00032202FA87
:1045A00003F3DB433A6913403B613B685B6803F00C
:1045B00003027B695B0002FA03F33A6913433B6130
:1045C0007B683A691A603B685B6803F44033002BF0
:1045D00000F09A80554B1B6E544A43F0010313665A
:1045E000524B1B6E03F00103BB60BB68504A7B69F2
:1045F0009B08023352F823303B617B6903F00303CD
:104600009B000F2202FA03F3DB433A6913403B613C
:104610007B68B3F1904F13D07B68464A93420DD02C
:104620007B68454A934207D07B68444A934201D154
:10463000032306E0072304E0022302E0012300E055
:1046400000237A6902F00302920093403A6913430F
:104650003B6137497B699B0802333A6941F8232063
:10466000374B9B683B61FB68DB433A6913403B6116
:104670003B685B6803F48013002B03D03A69FB6846
:1046800013433B612E4A3B6993602D4BDB683B61D2
:10469000FB68DB433A6913403B613B685B6803F4AA
:1046A0000013002B03D03A69FB6813433B61244A93
:1046B0003B69D360224B5B683B61FB68DB433A6933
:1046C00013403B613B685B6803F40033002B03D06D
:1046D0003A69FB6813433B61194A3B695360184BC5
:1046E0001B683B61FB68DB433A6913403B613B68F5
:1046F0005B6803F48033002B03D03A69FB681343F3
:104700003B610F4A3B6913607B6901337B613B6806
:104710001A687B6922FA03F3002B7FF4A9AE00BF6D
:1047200000BF1C37BD465DF8047B70470010024097
:10473000000001400004004800080048000C004848
:104740000004014080B483B000AF78600B467B80EA
:1047500013467B707B78002B03D07A887B689A6144
:1047600002E07A887B689A6200BF0C37BD465DF82C
:10477000047B704780B400AF054B1B68044A43F4C8
:104780008073136000BFBD465DF8047B704700BFB7
:104790000070004080B400AF044B1B6803F4C0639A
:1047A0001846BD465DF8047B704700BF00700040AE
:1047B00080B485B000AF78607B68B3F5007F30D1FE
:1047C000234B1B6803F4C063B3F5007F38D0204B44
:1047D0001B6823F4C0631E4A43F4007313601D4B2F
:1047E0001B68322202FB03F31B4AA2FB03239B0C30
:1047F0000133FB6002E0FB68013BFB60144B5B692B
:1048000003F48063B3F5806F02D1FB68002BF2D113
:104810000F4B5B6903F48063B3F5806F10D1032302
:104820000FE00B4B1B6803F4C063B3F5806F07D038
:10483000074B1B6823F4C063054A43F4806313608D
:10484000002318461437BD465DF8047B704700BF4F
:10485000007000400000002083DE1B4380B58AB05A
:1048600000AF78607B68002B02D1012300F04FBCC1
:10487000974B9B6803F00C033B62954BDB6803F09E
:104880000303FB617B681B6803F01003002B00F03F
:10489000E6803B6A002B07D03B6A0C2B40F08D80F2
:1048A000FB69012B40F08980894B1B6803F00203F0
:1048B000002B06D07B68DB69002B02D1012300F0BE
:1048C00026BC7B685A6A824B1B6803F00803002BE6
:1048D00004D07F4B1B6803F0F00305E07C4BD3F85A
:1048E00094301B0903F0F003934224D27B685B6A87
:1048F000184600F0D9FD0346002B02D0012300F03A
:1049000006BC734B1B68724A43F008031360704B7C
:104910001B6823F0F0027B685B6A6D4913430B60F0
:104920006B4B5B6823F47F427B681B6A1B02684900
:1049300013434B6025E0664B1B68654A43F0080350
:104940001360634B1B6823F0F0027B685B6A60496D
:1049500013430B605E4B5B6823F47F427B681B6AEA
:104960001B025B4913434B603B6A002B09D17B68F8
:104970005B6A184600F098FD0346002B01D0012326
:10498000C5E300F0CDFC0246514B9B681B0903F0C8
:104990000F035049CB5C03F01F0322FA03F34E4A86
:1049A00013604E4B1B681846FFF786F90346FB75EC
:1049B000FB7D002B52D0FB7DA9E37B68DB69002BDC
:1049C00032D0434B1B68424A43F001031360FFF7A8
:1049D000C3F9B86108E0FFF7BFF90246BB69D31A13
:1049E000022B01D9032392E3394B1B6803F0020326
:1049F000002BF0D0364B1B68354A43F00803136098
:104A0000334B1B6823F0F0027B685B6A3049134329
:104A10000B602F4B5B6823F47F427B681B6A1B0291
:104A20002B4913434B601AE0294B1B68284A23F09B
:104A300001031360FFF790F9B86108E0FFF78CF904
:104A40000246BB69D31A022B01D903235FE3204B33
:104A50001B6803F00203002BF0D100E000BF7B686D
:104A60001B6803F00103002B73D03B6A082B05D0B1
:104A70003B6A0C2B0ED1FB69032B0BD1144B1B682B
:104A800003F40033002B63D07B685B68002B5FD19D
:104A900001233CE37B685B68B3F5803F06D10C4B98
:104AA0001B680B4A43F48033136025E07B685B6826
:104AB000B3F5A02F14D1064B1B68054A43F480239D
:104AC0001360034B1B68024A43F48033136013E006
:104AD000001002403477000800000020040000208D
:104AE0008F4B1B688E4A23F4803313608C4B1B68FA
:104AF0008B4A23F4802313607B685B68002B13D000
:104B0000FFF72AF9B86108E0FFF726F90246BB690A
:104B1000D31A642B01D90323F9E2814B1B6803F4F8
:104B20000033002BF0D014E0FFF716F9B86108E06D
:104B3000FFF712F90246BB69D31A642B01D903238C
:104B4000E5E2774B1B6803F40033002BF0D100E063
:104B500000BF7B681B6803F00203002B60D03B6A38
:104B6000042B05D03B6A0C2B19D1FB69022B16D103
:104B70006B4B1B6803F48063002B05D07B68DB68FC
:104B8000002B01D10123C2E2654B5B6823F0FE429A
:104B90007B681B691B06624913434B6040E07B68DE
:104BA000DB68002B23D05E4B1B685D4A43F48073A7
:104BB0001360FFF7D1F8B86108E0FFF7CDF80246BF
:104BC000BB69D31A022B01D90323A0E2544B1B6803
:104BD00003F48063002BF0D0514B5B6823F0FE425E
:104BE0007B681B691B064E4913434B6018E04C4B16
:104BF0001B684B4A23F480731360FFF7ADF8B8616C
:104C000008E0FFF7A9F80246BB69D31A022B01D9C5
:104C100003237CE2424B1B6803F48063002BF0D13A
:104C20007B681B6803F00803002B00F082807B6820
:104C30005B69002B5FD03A4BD3F894303B617B68C3
:104C40009A693B6903F010039A4237D03B6903F03D
:104C50000203002B06D03B6903F00103002B01D1B6
:104C6000012354E23B6903F00103002B1BD02C4BC2
:104C7000D3F894302A4A23F00103C2F89430FFF7A6
:104C80006BF8B86108E0FFF767F80246BB69D31A12
:104C9000112B01D903233AE2214BD3F8943003F0CE
:104CA0000203002BEFD11E4BD3F8943023F01002F7
:104CB0007B689B691A491343C1F89430184BD3F8A9
:104CC0009430174A43F00103C2F89430FFF744F8D8
:104CD000B86108E0FFF740F80246BB69D31A112B10
:104CE00001D9032313E20E4BD3F8943003F00203EF
:104CF000002BEFD01DE00A4BD3F89430084A23F084
:104D00000103C2F89430FFF727F8B8610AE0FFF713
:104D100023F80246BB69D31A112B03D90323F6E10A
:104D200000100240A94BD3F8943003F00203002B8B
:104D3000EDD17B681B6803F00403002B00F0BD80FD
:104D4000002387F82730A14B9B6D03F08053002B85
:104D50000ED19E4B9B6D9D4A43F0805393659B4BB8
:104D60009B6D03F08053FB60FB68012387F82730BD
:104D7000974B1B6803F48073002B18D1944B1B686E
:104D8000934A43F480731360FEF7E6FFB86108E0CE
:104D9000FEF7E2FF0246BB69D31A022B01D90323B7
:104DA000B5E18B4B1B6803F48073002BF0D07B685C
:104DB0009B6803F00103002B2CD0844BD3F8903078
:104DC00023F080027B689B6803F080037F491343D4
:104DD000C1F890307B689B6803F00403002B10D06F
:104DE0007A4BD3F89030794A43F00403C2F89030FC
:104DF000764BD3F89030754A43F00103C2F89030F7
:104E000018E0724BD3F89030704A43F00103C2F8B7
:104E100090300FE06D4BD3F890306C4A23F00103D3
:104E2000C2F89030694BD3F89030684A23F00403FD
:104E3000C2F890307B689B68002B16D0FEF78CFF81
:104E4000B8610AE0FEF788FF0246BB69D31A41F257
:104E50008832934201D9032359E15C4BD3F8903057
:104E600003F00203002BEDD01DE0FEF775FFB861E3
:104E70000AE0FEF771FF0246BB69D31A41F288329D
:104E8000934201D9032342E1504BD3F8903003F011
:104E90000203002BEDD14D4BD3F890304B4A23F059
:104EA0008003C2F8903097F82730012B05D1474B8B
:104EB0009B6D464A23F0805393657B681B6803F023
:104EC0002003002B3CD07B689B6A002B1CD03F4BFF
:104ED000D3F898303D4A43F00103C2F89830FEF70A
:104EE0003BFFB86108E0FEF737FF0246BB69D31A03
:104EF000022B01D903230AE1344BD3F8983003F095
:104F00000203002BEFD01BE0304BD3F898302F4A30
:104F100023F00103C2F89830FEF71EFFB86108E0E5
:104F2000FEF71AFF0246BB69D31A022B01D90323ED
:104F3000EDE0264BD3F8983003F00203002BEFD1BD
:104F40007B68DB6A002B00F0E1807B68DB6A022B68
:104F500040F0B5801D4BDB68FB61FB6903F0030289
:104F60007B681B6B9A4224D1FB6903F070027B685B
:104F70005B6B013B1B019A421BD1FB6903F4FE42B0
:104F80007B689B6B1B029A4213D1FB6903F4C0023E
:104F90007B68DB6B5B08013B5B059A4209D1FB69CF
:104FA00003F0C0627B681B6C5B08013B5B069A42A6
:104FB0005FD03B6A0C2B5AD0044B1B68034A23F08A
:104FC00080731360FEF7C8FEB8610CE00010024069
:104FD00000700040FEF7C0FE0246BB69D31A022BE8
:104FE00001D9032393E04C4B1B6803F00073002BA3
:104FF000F0D1494BDA68494B13407A68116B7A68F3
:10500000526B013A120111437A68926B12021143FA
:105010007A68D26B5208013A520511437A68126CD1
:105020005208013A52060A433B491343CB603A4BBC
:105030001B68394A43F080731360374BDB68364A8C
:1050400043F08073D360FEF787FEB86108E0FEF797
:1050500083FE0246BB69D31A022B01D9032356E013
:105060002D4B1B6803F00073002BF0D04EE00123A2
:105070004DE0294B1B6803F00073002B46D1264BF3
:105080001B68254A43F080731360234BDB68224A78
:1050900043F08073D360FEF75FFEB86108E0FEF76F
:1050A0005BFE0246BB69D31A022B01D903232EE013
:1050B000194B1B6803F00073002BF0D026E03B6A0D
:1050C0000C2B21D0144B1B68134A23F08073136000
:1050D000FEF742FEB86108E0FEF73EFE0246BB69FD
:1050E000D31A022B01D9032311E00B4B1B6803F0E9
:1050F0000073002BF0D1084BDB68074A23F088735C
:1051000023F00303D36001E0012300E000231846ED
:105110002837BD4680BD00BF001002408C809FF93B
:1051200080B584B000AF786039607B68002B01D116
:105130000123E7E0754B1B6803F007033A689A42C6
:1051400010D9724B1B6823F0070270493B68134368
:105150000B606E4B1B6803F007033A689A4201D05C
:105160000123CFE07B681B6803F00203002B10D003
:105170007B689A68664B9B6803F0F0039A4208D9F3
:10518000634B9B6823F0F0027B689B686049134384
:105190008B607B681B6803F00103002B4CD07B689D
:1051A0005B68032B07D15A4B1B6803F00073002B7D
:1051B00021D10123A6E07B685B68022B07D1544B09
:1051C0001B6803F40033002B15D101239AE07B68A0
:1051D0005B68002B07D14E4B1B6803F00203002BCA
:1051E00009D101238EE04A4B1B6803F48063002B36
:1051F00001D1012386E0464B9B6823F003027B68C4
:105200005B68434913438B60FEF7A6FDF8600AE034
:10521000FEF7A2FD0246FB68D31A41F288329342A0
:1052200001D903236EE03A4B9B6803F00C027B68C4
:105230005B689B009A42EBD17B681B6803F002031A
:10524000002B10D07B689A68314B9B6803F0F00309
:105250009A4208D22E4B9B6823F0F0027B689B6831
:105260002B4913438B60294B1B6803F007033A68F3
:105270009A4210D2254B1B6823F0070223493B6852
:1052800013430B60214B1B6803F007033A689A42F3
:1052900001D0012336E07B681B6803F00403002B78
:1052A00008D01B4B9B6823F4E0627B68DB681849DD
:1052B00013438B607B681B6803F00803002B09D045
:1052C000134B9B6823F460527B681B69DB00104919
:1052D00013438B6000F024F802460D4B9B681B09BA
:1052E00003F00F030B49CB5C03F01F0322FA03F317
:1052F000094A1360094B1B681846FEF7DDFC03469C
:10530000FB72FB7A18461037BD4680BD0020024074
:105310000010024034770008000000200400002044
:1053200080B489B000AF0023FB610023BB613E4B1A
:105330009B6803F00C033B613B4BDB6803F003030A
:10534000FB603B69002B05D03B690C2B21D1FB682E
:10535000012B1ED1344B1B6803F00803002B07D12F
:10536000314BD3F894301B0A03F00F03FB6105E0C7
:105370002D4B1B681B0903F00F03FB612B4AFB69D4
:1053800052F82330FB613B69002B0DD1FB69BB61F7
:105390000AE03B69042B02D1254BBB6104E03B6969
:1053A000082B01D1234BBB613B690C2B34D11E4B25
:1053B000DB6803F00303BB60BB68022B03D0BB6850
:1053C000032B03D005E01A4B7B6105E0194B7B6191
:1053D00002E0FB697B6100BF134BDB681B0903F034
:1053E000070301337B60104BDB681B0A03F07F036C
:1053F0007A6903FB02F27B68B2FBF3F37B610A4B31
:10540000DB685B0E03F0030301335B003B607A69EA
:105410003B68B2FBF3F3BB61BB6918462437BD465A
:105420005DF8047B704700BF001002404C77000815
:105430000024F40000127A0080B400AF034B1B6814
:105440001846BD465DF8047B704700BF0000002091
:1054500080B500AFFFF7F0FF0246064B9B681B0AC2
:1054600003F007030449CB5C03F01F0322FA03F3A4
:10547000184680BD001002404477000880B500AF98
:10548000FFF7DAFF0246064B9B68DB0A03F00703CF
:105490000449CB5C03F01F0322FA03F3184680BDD6
:1054A000001002404477000880B586B000AF7860F5
:1054B00000233B612A4B9B6D03F08053002B03D0EC
:1054C000FFF768F9786114E0254B9B6D244A43F09F
:1054D00080539365224B9B6D03F08053FB60FB6808
:1054E000FFF758F978611E4B9B6D1D4A23F08053DE
:1054F00093657B69B3F5007F0BD17B68802B19D94D
:105500007B68A02B02D902233B6113E001233B619E
:1055100010E07B68802B02D903233B610AE07B68A3
:10552000802B02D102233B6104E07B68702B01D108
:1055300001233B610B4B1B6823F0070209493B69C0
:1055400013430B60074B1B6803F007033A699A4249
:1055500001D0012300E0002318461837BD4680BD66
:10556000001002400020024080B586B000AF786095
:105570000023FB740023BB747B681B6803F40033B7
:10558000002B00F09E8000237B74464B9B6D03F044
:105590008053002B01D1012300E00023002B0DD00C
:1055A000404B9B6D3F4A43F0805393653D4B9B6D51
:1055B00003F08053BB60BB6801237B743A4B1B68CC
:1055C000394A43F480731360FEF7C6FBF86009E0C4
:1055D000FEF7C2FB0246FB68D31A022B02D9032353
:1055E000FB7405E0304B1B6803F48073002BEFD095
:1055F000FB7C002B5AD12B4BD3F8903003F4407333
:105600007B617B69002B1ED07B681B6B7A699A4299
:1056100019D0244BD3F8903023F440737B61214B95
:10562000D3F890301F4A43F48033C2F890301D4BBA
:10563000D3F890301B4A23F48033C2F89030194AD3
:105640007B69C2F890307B6903F00103002B16D010
:10565000FEF782FBF8600BE0FEF77EFB0246FB687C
:10566000D31A41F28832934202D90323FB7406E035
:105670000C4BD3F8903003F00203002BECD0FB7CF2
:10568000002B0BD1074BD3F8903023F440727B688A
:105690001B6B04491343C1F8903009E0FB7CBB74D9
:1056A00006E000BF0010024000700040FB7CBB74AD
:1056B0007B7C012B05D16E4B9B6D6D4A23F0805393
:1056C00093657B681B6803F00103002B0AD0684BCD
:1056D000D3F8883023F003027B685B686449134386
:1056E000C1F888307B681B6803F00203002B0AD0E6
:1056F0005F4BD3F8883023F00C027B689B685C49D1
:105700001343C1F888307B681B6803F00403002B47
:105710000AD0574BD3F8883023F030027B68DB681F
:1057200053491343C1F888307B681B6803F020039A
:10573000002B0AD04E4BD3F8883023F440627B68AC
:105740001B694B491343C1F888307B681B6803F41D
:105750000073002B0AD0464BD3F8883023F4402244
:105760007B681B6A42491343C1F888307B681B6819
:1057700003F48063002B0AD03D4BD3F8883023F428
:1057800040127B685B6A3A491343C1F888307B68F2
:105790001B6803F04003002B0AD0354BD3F8883048
:1057A00023F440527B685B6931491343C1F8883068
:1057B0007B681B6803F08003002B0AD02C4BD3F8C6
:1057C000883023F440427B689B6929491343C1F820
:1057D00088307B681B6803F48073002B0AD0244B4D
:1057E000D3F8883023F440327B68DB6920491343C7
:1057F000C1F888307B681B6803F40053002B15D078
:105800001B4BD3F8883023F040627B689B6A1849B1
:105810001343C1F888307B689B6AB3F1006F05D1F0
:10582000134BDB68124A43F48013D3607B681B6818
:1058300003F48023002B15D00D4BD3F8883023F0D0
:1058400040627B68DB6A0A491343C1F888307B6891
:10585000DB6AB3F1006F05D1054BDB68044A43F402
:105860008013D360BB7C18461837BD4680BD00BF8F
:105870000010024080B400AF054B1B68044A43F09F
:105880000403136000BFBD465DF8047B704700BF92
:105890000010024080B582B000AF78607B68002BBA
:1058A00001D1012349E07B6893F83D30DBB2002B46
:1058B00006D17B68002283F83C207868FEF7FAF86E
:1058C0007B68022283F83D207B681A687B6804337A
:1058D0001946104600F0B4F97B68012283F848208D
:1058E0007B68012283F83E207B68012283F83F20F9
:1058F0007B68012283F840207B68012283F84120E5
:105900007B68012283F842207B68012283F84320D0
:105910007B68012283F844207B68012283F84520BC
:105920007B68012283F846207B68012283F84720A8
:105930007B68012283F83D20002318460837BD46C6
:1059400080BD000080B485B000AF78607B6893F8BC
:105950003D30DBB2012B01D001233BE07B6802220A
:1059600083F83D207B681B68DA687B681B6842F01F
:105970000102DA607B681B68194A934209D07B6890
:105980001B68B3F1804F04D07B681B68154A9342B3
:1059900015D17B681B689A68134B1340FB60FB684A
:1059A000062B15D0FB68B3F5803F11D07B681B68D0
:1059B0001A687B681B6842F001021A6008E07B6885
:1059C0001B681A687B681B6842F001021A6000E0DD
:1059D00000BF002318461437BD465DF8047B7047AE
:1059E000002C0140004001400700010080B584B058
:1059F00000AF78607B681B68DB68FB607B681B68B6
:105A00001B69BB60BB6803F00203002B20D0FB685E
:105A100003F00203002B1BD07B681B686FF00202AF
:105A20001A617B6801221A777B681B689B6903F007
:105A30000303002B03D0786800F0E4F805E07868F1
:105A400000F0D6F8786800F0E7F87B6800221A7753
:105A5000BB6803F00403002B20D0FB6803F00403B1
:105A6000002B1BD07B681B686FF004021A617B68F7
:105A700002221A777B681B689B6903F44073002B32
:105A800003D0786800F0BEF805E0786800F0B0F860
:105A9000786800F0C1F87B6800221A77BB6803F0D1
:105AA0000803002B20D0FB6803F00803002B1BD059
:105AB0007B681B686FF008021A617B6804221A7702
:105AC0007B681B68DB6903F00303002B03D0786855
:105AD00000F098F805E0786800F08AF8786800F03F
:105AE0009BF87B6800221A77BB6803F01003002B39
:105AF00020D0FB6803F01003002B1BD07B681B68D1
:105B00006FF010021A617B6808221A777B681B68A5
:105B1000DB6903F44073002B03D0786800F072F85F
:105B200005E0786800F064F8786800F075F87B6844
:105B300000221A77BB6803F00103002B0CD0FB682E
:105B400003F00103002B07D07B681B686FF0010294
:105B50001A617868FDF7D2FDBB6803F08003002B63
:105B60000CD0FB6803F08003002B07D07B681B6818
:105B70006FF080021A61786800F036F9BB6803F4B0
:105B80008073002B0CD0FB6803F08003002B07D040
:105B90007B681B686FF480721A61786800F02EF9D8
:105BA000BB6803F04003002B0CD0FB6803F04003FC
:105BB000002B07D07B681B686FF040021A61786881
:105BC00000F034F8BB6803F02003002B0CD0FB6816
:105BD00003F02003002B07D07B681B686FF02002C6
:105BE0001A61786800F0F6F800BF1037BD4680BD36
:105BF00080B483B000AF786000BF0C37BD465DF85D
:105C0000047B704780B483B000AF786000BF0C376E
:105C1000BD465DF8047B704780B483B000AF786008
:105C200000BF0C37BD465DF8047B704780B483B07D
:105C300000AF786000BF0C37BD465DF8047B70474D
:105C400080B485B000AF786039607B681B68FB600A
:105C50007B682A4A934203D07B68B3F1804F08D116
:105C6000FB6823F07003FB603B685B68FA681343D2
:105C7000FB607B68214A93420BD07B68B3F1804F75
:105C800007D07B681E4A934203D07B681D4A93422B
:105C900008D1FB6823F44073FB603B68DB68FA685B
:105CA0001343FB60FB6823F080023B685B6913438E
:105CB000FB607B68FA681A603B689A687B68DA6206
:105CC0003B681A687B689A627B680C4A934207D0EB
:105CD0007B680B4A934203D07B680A4A934203D104
:105CE0003B681A697B681A637B6801225A6100BFAE
:105CF0001437BD465DF8047B704700BF002C01409F
:105D0000004001400044014080B485B000AF78609D
:105D100039607B6893F83C30012B01D102234FE0BE
:105D20007B68012283F83C207B68022283F83D20B7
:105D30007B681B685B68FB607B681B689B68BB605B
:105D40007B681B68214A934208D1FB6823F47003E7
:105D5000FB603B685B68FA681343FB60FB6823F0F9
:105D60007003FB603B681B68FA681343FB607B6849
:105D70001B68FA685A607B681B68144A934209D012
:105D80007B681B68B3F1804F04D07B681B68104AA6
:105D900093420CD1BB6823F08003BB603B689B68D7
:105DA000BA681343BB607B681B68BA689A607B68FB
:105DB000012283F83D207B68002283F83C200023E9
:105DC00018461437BD465DF8047B7047002C01402F
:105DD0000040014080B483B000AF786000BF0C3752
:105DE000BD465DF8047B704780B483B000AF786037
:105DF00000BF0C37BD465DF8047B704780B483B0AC
:105E000000AF786000BF0C37BD465DF8047B70477B
:105E100080B582B000AF78607B68002B01D1012390
:105E200040E07B68DB6F002B06D17B68002283F8A3
:105E300078207868FDF794FE7B682422DA677B6817
:105E40001B681A687B681B6822F001021A607B6875
:105E50005B6A002B02D0786800F00CFB786800F0D9
:105E6000AFF80346012B01D101231BE07B681B68BF
:105E70005A687B681B6822F490425A607B681B68F2
:105E80009A687B681B6822F02A029A607B681B680C
:105E90001A687B681B6842F001021A60786800F09B
:105EA0008BFB034618460837BD4680BD80B58AB0D7
:105EB00002AFF860B9603B601346FB80FB68DB6FA4
:105EC000202B78D1BB68002B02D0FB88002B01D19E
:105ED000012371E0FB680022C3F88420FB682122C3
:105EE000DA67FDF739FF7861FB68FA88A3F850207C
:105EF000FB68FA88A3F85220FB689B68B3F5805FC3
:105F000008D1FB681B69002B04D10023FB61BB682F
:105F1000BB6103E0BB68FB610023BB6130E03B6811
:105F200000937B6900228021F86800F0EDFB0346B6
:105F3000002B04D0FB682022DA6703233CE0FB69D6
:105F4000002B0BD1BB691A88FB681B68C2F30802DF
:105F500092B21A85BB690233BB6108E0FB691A780B
:105F6000FB681B6892B21A85FB690133FB61FB6811
:105F7000B3F852309BB2013B9AB2FB68A3F85220AF
:105F8000FB68B3F852309BB2002BC8D13B6800933A
:105F90007B6900224021F86800F0B6FB0346002B25
:105FA00004D0FB682022DA67032305E0FB68202287
:105FB000DA67002300E0022318462037BD4680BD83
:105FC0002DE9B04F8AB000AFF860002387F8223087
:105FD000FB689A68FB681B691A43FB685B691A4394
:105FE000FB68DB6913437B62FB681B681A689E4B86
:105FF0001340FA681268796A0B431360FB681B68E8
:106000005B6823F44051FB68DA68FB681B680A434D
:106010005A60FB689B697B62FB681B68934A9342EA
:1060200004D0FB681B6A7A6A13437B62FB681B68B7
:106030009B6823F43061FB681B687A6A0A439A60A4
:10604000FB681B688A4A934226D18A4BD3F8883072
:1060500003F00303032B1BD801A252F823F000BF67
:10606000716000088160000879600008896000089C
:10607000012387F82330ABE0022387F82330A7E021
:10608000042387F82330A3E0082387F823309FE018
:10609000102387F823309BE0FB681B68764A934205
:1060A00038D1744BD3F8883003F00C030C2B2DD867
:1060B00001A252F823F000BFED6000080D61000856
:1060C0000D6100080D610008FD6000080D61000809
:1060D0000D6100080D610008F56000080D61000801
:1060E0000D6100080D61000805610008002387F8B4
:1060F00023306DE0022387F8233069E0042387F81A
:10610000233065E0082387F8233061E0102387F807
:1061100023305DE0FB681B68584A934225D1554BFC
:10612000D3F8883003F03003302B16D0302B18D83A
:10613000202B0AD0202B14D8002B02D0102B08D0F3
:106140000FE0002387F8233042E0022387F8233052
:106150003EE0042387F823303AE0082387F8233011
:1061600036E0102387F8233032E0FB681B683F4A93
:1061700093422AD13F4BD3F8883003F44063B3F500
:10618000406F1AD0B3F5406F1BD8B3F5006F0CD039
:10619000B3F5006F15D8002B03D0B3F5806F08D08E
:1061A0000FE0002387F8233012E0022387F8233022
:1061B0000EE0042387F823300AE0082387F8233011
:1061C00006E0102387F8233002E0102387F82330FD
:1061D000FB681B68254A934240F08A8097F8233079
:1061E000082B24D801A252F823F000BF1162000846
:1061F0002F620008196200082F6200081F62000861
:106200002F6200082F6200082F6200082762000832
:10621000FFF71EF9F86110E0194BFB610DE0FFF785
:106220007FF8F86109E04FF40043FB6105E00023CB
:10623000FB61012387F8223000BFFB69002B00F0CF
:106240000981FB685A6813465B001344FA699A4255
:1062500005D3FB685B681B03FA699A4212D90123D4
:1062600087F82230F6E000BFF369FFEF00800040BE
:106270000038014000100240004400400048004047
:106280000024F400FB6900221C4615464FF0000272
:106290004FF000032B0243EA14632202F9684968B5
:1062A000490800208846814612EB080A43EB090B97
:1062B000FB685B6800223B607A60D7E900235046A8
:1062C0005946FCF7D5FF02460B461346BB61BB6936
:1062D000B3F5407F08D3BB69B3F5801F04D2FB68D8
:1062E0001B68BA69DA60B5E0012387F82230B1E0B3
:1062F000FB68DB69B3F5004F5DD197F82330082BBD
:1063000027D801A252F823F02D6300083563000856
:106310003D630008536300084363000853630008AB
:1063200053630008536300084B630008FFF790F8BD
:10633000F86114E0FFF7A2F8F86110E04C4BFB6144
:106340000DE0FEF7EDFFF86109E04FF40043FB615B
:1063500005E00023FB61012387F8223000BFFB69C1
:10636000002B77D0FB695A00FB685B685B081A4416
:10637000FB685B68B2FBF3F3BB61BB690F2B16D9FB
:10638000BB69B3F5803F12D2BB699BB223F00F0308
:10639000FB82BB695B089BB203F007039AB2FB8ADE
:1063A0001343FB82FB681B68FA8ADA6052E0012320
:1063B00087F822304EE097F82330082B27D801A227
:1063C00052F823F0E9630008F1630008F96300085C
:1063D0000F640008FF6300080F6400080F640008E2
:1063E0000F64000807640008FFF732F8F86114E052
:1063F000FFF744F8F86110E01D4BFB610DE0FEF77C
:106400008FFFF86109E04FF40043FB6105E00023D2
:10641000FB61012387F8223000BFFB69002B19D0F4
:10642000FB685B685A08FB691A44FB685B68B2FB4F
:10643000F3F3BB61BB690F2B09D9BB69B3F5803F8F
:1064400005D2BB699AB2FB681B68DA6002E00123DF
:1064500087F82230FB6800229A66FB680022DA6621
:1064600097F8223018462837BD46BDE8B08F00BFE8
:106470000024F40080B483B000AF78607B685B6A6E
:1064800003F00803002B0AD07B681B685B6823F4C9
:1064900000417B685A6B7B681B680A435A607B68C3
:1064A0005B6A03F00103002B0AD07B681B685B6802
:1064B00023F400317B689A6A7B681B680A435A6040
:1064C0007B685B6A03F00203002B0AD07B681B68C1
:1064D0005B6823F480317B68DA6A7B681B680A4357
:1064E0005A607B685B6A03F00403002B0AD07B6868
:1064F0001B685B6823F480217B681A6B7B681B68D0
:106500000A435A607B685B6A03F01003002B0AD0D1
:106510007B681B689B6823F480517B689A6B7B685F
:106520001B680A439A607B685B6A03F02003002BB8
:106530000AD07B681B689B6823F400517B68DA6B88
:106540007B681B680A439A607B685B6A03F04003C0
:10655000002B1AD07B681B685B6823F480117B6872
:106560001A6C7B681B680A435A607B681B6CB3F526
:10657000801F0AD17B681B685B6823F4C0017B68BD
:106580005A6C7B681B680A435A607B685B6A03F03D
:106590008003002B0AD07B681B685B6823F4002112
:1065A0007B689A6C7B681B680A435A6000BF0C3793
:1065B000BD465DF8047B704780B598B002AF786047
:1065C0007B680022C3F88420FDF7C6FB78657B68F2
:1065D0001B681B6803F00803082B2ED16FF07E4365
:1065E00000937B6D00224FF40011786800F08CF866
:1065F0000346002B21D07B681B68BB63BB6B53E851
:10660000003F7B637B6B23F080033B657B681B68EB
:106610001A463B6D7B643A64396C7A6C41E800231E
:10662000FB63FB6B002BE6D17B682022DA677B687B
:10663000002283F87820032362E07B681B681B68D4
:1066400003F00403042B49D16FF07E4300937B6D6C
:1066500000224FF48001786800F056F80346002BC2
:106660003CD07B681B687B627B6A53E8003F3B62DF
:106670003B6A23F49073FB647B681B681A46FB6CCF
:106680003B63FA62F96A3A6B41E80023BB62BB6A7A
:10669000002BE6D17B681B6808333B613B6953E8FC
:1066A000003FFB60FB6823F00103BB647B681B6851
:1066B0000833BA6CFA61BB61B969FA6941E8002331
:1066C0007B617B69002BE5D17B682022C3F88020A9
:1066D0007B68002283F87820032311E07B68202266
:1066E000DA677B682022C3F880207B6800221A6664
:1066F0007B6800225A667B68002283F8782000239A
:1067000018465837BD4680BD80B584B000AFF860EC
:10671000B9603B601346FB7149E0BB69B3F1FF3FD1
:1067200045D0FDF719FB02463B68D31ABA699A4275
:1067300002D3BB69002B01D1032348E0FB681B682F
:106740001B6803F00403002B31D0FB681B68DB6976
:1067500003F00803082B10D1FB681B6808221A629B
:10676000F86800F038F8FB680822C3F88420FB685A
:10677000002283F87820012329E0FB681B68DB698D
:1067800003F40063B3F5006F11D1FB681B684FF48D
:1067900000621A62F86800F01EF8FB682022C3F855
:1067A0008420FB68002283F8782003230FE0FB6835
:1067B0001B68DA69BB681340BA689A420CBF0123B0
:1067C0000023DBB21A46FB799A42A6D00023184672
:1067D0001037BD4680BD80B495B000AF78607B684F
:1067E0001B687B637B6B53E8003F3B633B6B23F48D
:1067F0009073FB647B681B681A46FB6C3B64FA630E
:10680000F96B3A6C41E80023BB63BB6B002BE6D10C
:106810007B681B6808333B623B6A53E8003FFB61BF
:10682000FB6923F00103BB647B681B680833BA6C07
:10683000FA62BB62B96AFA6A41E800237B627B6A4A
:10684000002BE5D17B681B6E012B18D17B681B6880
:10685000FB60FB6853E8003FBB60BB6823F010039C
:106860007B647B681B681A467B6CBB617A617969C3
:10687000BA6941E800233B613B69002BE6D17B68A4
:106880002022C3F880207B6800221A667B680022E1
:106890009A6600BF5437BD465DF8047B7047000020
:1068A000002310B50446C0E90033C0E90433836017
:1068B00081814366C2818361194608225C3000F001
:1068C00006F90D4B63620D4BA3620D4BE3620D4B5A
:1068D00023630D4B24629C4206D003F1680294426C
:1068E00002D0D0339C4205D104F15800BDE81040DD
:1068F00000F066B910BD00BF496A00086B6A000865
:10690000A36A0008C76A000890010020024A0349F0
:10691000034800F069B800BF2C0000206D74000827
:106920003800002041680C4B994210B5044601D054
:1069300000F09CFDA168094B994202D0204600F06E
:1069400095FDE168064B994204D02046BDE8104011
:1069500000F08CBD10BD00BF90010020F8010020A8
:106960006002002010B50B4B0B4C0C4A1A602046FD
:1069700000220421FFF794FF04F16800012209219D
:10698000FFF78EFF04F1D0000222BDE81040122173
:10699000FFF786BFC8020020900100200D690008A3
:1069A000014800F00EB900BFD1020020014800F0FC
:1069B00009B900BFD102002010B50446FFF7F0FF6F
:1069C000236A1BB1BDE81040FFF7F0BF044B236200
:1069D000044B1B68002BF5D1FFF7C4FFF2E700BFA3
:1069E00025690008C80200202DE9F84307468846BB
:1069F00014460026D4E90195B9F1010905D52468AA
:106A0000002CF7D13046BDE8F883AB89012B07D9BC
:106A1000B5F90E30013303D029463846C047064346
:106A20006835E9E70FB407B5064904AB086853F8C1
:106A3000042B8168019300F0E9F903B05DF804EBE1
:106A400004B070478400002010B50C46B1F90E1058
:106A500000F068F80028ABBF636DA3891B1823F40E
:106A60008053ACBF6365A38110BD2DE9F0411F4683
:106A70008B89DB0505460C46164605D5B1F90E1087
:106A80000223002200F03CF8A389B4F90E1023F48D
:106A90008053A38132463B462846BDE8F04100F0D2
:106AA00053B810B50C46B1F90E1000F029F8431C8C
:106AB000A38915BF606523F4805343F48053A381F9
:106AC00018BFA38110BDB1F90E1000F009B802443F
:106AD0000346934200D1704703F8011BF9E7000019
:106AE00038B5064D0023044608462B60FCF72DFF01
:106AF000431C02D12B6803B1236038BDCC020020B7
:106B000038B5074D04460846114600222A601A4649
:106B1000FCF742FF431C02D12B6803B1236038BD50
:106B2000CC02002038B5074D044608461146002225
:106B30002A601A46FCF7D0FE431C02D12B6803B131
:106B4000236038BDCC02002038B5074D0446084606
:106B5000114600222A601A46FCF7DBFE431C02D1D4
:106B60002B6803B1236038BDCC020020014B1868AC
:106B7000704700BF8400002070B50D4D0D4C641BA4
:106B8000A4100026A64209D10B4D0C4C00F0C0FD0C
:106B9000641BA4100026A64205D170BD55F8043B25
:106BA00098470136EEE755F8043B98470136F2E77F
:106BB000B8770008B8770008B8770008BC770008F5
:106BC000704770477047000037B5002944D051F82E
:106BD000043C0190002BA1F10404B8BFE41800F0BC
:106BE000DFF81E4A0198136833B96360146003B07C
:106BF000BDE8304000F0DAB8A34208D92568611931
:106C00008B4201BF19685B6849192160EDE71A469C
:106C10005B680BB1A342FAD911685518A5420BD194
:106C2000246821445418A3421160E0D11C685B68B9
:106C300053600C441460DAE702D90C230360D6E7F2
:106C4000256861198B4204BF19685B68636004BFE3
:106C5000491921605460CAE703B030BDD402002056
:106C600070B50E4E0C463168054611B900F0BCFCFB
:106C700030602146284600F0B7FC431C0AD0C41CF3
:106C800024F00304A04207D0211A284600F0ACFCEF
:106C9000013001D14FF0FF34204670BDD8020020F2
:106CA0002DE9F843CD1C25F0030508350C2D38BF20
:106CB0000C25002D074601DBA94205D90C233B60BA
:106CC00000263046BDE8F883DFF8D08000F068F891
:106CD000D8F800301C465CBB29463846FFF7C0FF99
:106CE000431C044655D1D8F800402646002E45D115
:106CF000002C48D023683146384604EB030900F0E5
:106D000073FC81453FD121686D1A29463846FFF74B
:106D1000A7FF013037D023682B442360D8F8003018
:106D2000002B38D05A68A2422BD100225A600FE0C3
:106D30002268521B1FD40B2A17D96119A342256060
:106D400018BF5960636808BFC8F8001062514B60F3
:106D5000384604F10B0600F029F826F00706231D3B
:106D6000F21AAED09B1BA350ABE7A3426268DDD101
:106D7000C8F80020ECE723466468ACE73446766840
:106D8000B4E71346CCE70C233B60384600F00EF81E
:106D900097E72560DCE75B60FFDE00BFD4020020E0
:106DA0000148FFF70EBF00BFD00200200148FFF7E7
:106DB00009BF00BFD00200209368013B002B10B434
:106DC000936008DA9469A34201DB0A2903D15DF8D4
:106DD000044B00F073BB1368581C10601970084610
:106DE0005DF8044B7047F8B506460F461446D518B3
:106DF000AC4201D1002007E014F8011B3A463046AE
:106E0000FFF7DAFF431CF3D1F8BD00002DE9F04F86
:106E10000D469DB014469846064618B1036A0BB954
:106E2000FFF7CAFD6B6ED90705D4AB899A0502D46A
:106E3000A86DFFF7C6FEAB891B0701D52B699BB96F
:106E40002946304600F078FB70B16B6EDC0704D544
:106E50004FF0FF301DB0BDE8F08FAB899805F7D437
:106E6000A86DFFF7AFFEF3E70023099320238DF809
:106E70002930CDF80C803023DFF8B0818DF82A302E
:106E80004FF0010923469A4613F8012B0AB1252A2F
:106E9000F9D1BAEB040B0BD05B46224629463046AB
:106EA000FFF7A1FF013000F0A980099A5A44099226
:106EB0009AF80030002B00F0A18000234FF0FF3241
:106EC000CDE905230AF1010A049307938DF85330A5
:106ED0001A935446052214F8011B5448FCF778F91C
:106EE000049AD8B9D10644BF20238DF85330130734
:106EF00044BF2B238DF853309AF800302A2B15D03D
:106F0000079A544600204FF00A0C214611F8013B25
:106F1000303B092B4DD9B0B1079214E0A0EB080328
:106F200009FA03F313430493A246D2E7039B191D06
:106F30001B680391002BBBBF5B4242F00202079328
:106F40000793B8BF049223782E2B0CD163782A2B99
:106F500034D1039B1A1D1B680392002BB8BF4FF05E
:106F6000FF3302340593DFF8D4A021780322504682
:106F7000FCF72EF938B1049BA0EB0A0040228240B6
:106F800013430134049314F8011B29488DF8281089
:106F90000622FCF71DF900283FD0264B1BBB039BA4
:106FA000073323F0070308330393099B3B440993FA
:106FB00068E70CFB02320C460120A6E700230134EF
:106FC000059319464FF00A0C204610F8012B303A71
:106FD000092A03D9002BC6D00591C4E70CFB012177
:106FE00004460123F0E703AB00932A46124B04A9A1
:106FF0003046AFF300800746781CD6D16B6ED907B8
:1070000005D4AB899A0502D4A86DFFF7DBFDAB89E7
:107010005B063FF51DAF09981CE703AB00932A46BA
:10702000054B04A9304600F079F8E4E77C770008C6
:107030008677000800000000E76D000882770008EE
:107040002DE9F047164699468A680B69DDF82080DD
:107050009342B8BF1346336091F8432007460C466D
:107060000AB1013333602368990642BF33680233A3
:107070003360256815F0060506D104F1190AE368A6
:1070800032689B1AAB4226DC94F84320131E226818
:1070900018BF012392062BD404F143024946384617
:1070A000C04701301ED02368226903F00603042B79
:1070B00002BFE5683368ED1AA3680CBF25EAE575E1
:1070C00000259342C4BF9B1AED1800261A34B5421E
:1070D0001AD1002008E00123524649463846C047ED
:1070E000013003D14FF0FF30BDE8F0870135C6E72E
:1070F000E1185A1C302081F84300224494F84510CE
:1071000082F843100233C7E7012322464946384636
:10711000C0470130E6D00136D9E700002DE9FF472E
:107120000F7E0C9D782F914680460C469A4601F1C1
:10713000430207D8622F0AD8002F00F0D480582FBE
:1071400000F0C08004F1420584F842703AE0A7F1F3
:107150006303152BF6D801A151F823F0B57100088F
:10716000C9710008457100084571000845710008A3
:1071700045710008C9710008457100084571000893
:107180004571000845710008CD720008F5710008CE
:10719000877200084571000845710008EF72000809
:1071A00045710008F5710008457100084571000837
:1071B0008F7200082B681A1D1B682A6004F14205B3
:1071C00084F8423001239FE020682B68070603F112
:1071D0000401296001D51E6803E04606FBD5B3F91A
:1071E0000060002E03DA2D23764284F843305A489B
:1071F0000A2312E02B682068191D2960050601D5B5
:107200001E6802E04106FBD51E8853486F2F0CBF55
:1072100008230A23002184F843106568A560002D27
:10722000A2BF216821F0040121600EB9002D4BD0CE
:107230001546B6FBF3F103FB1167C75D05F8017D49
:107240003746BB420E46F4D9082B0BD12368DE0724
:1072500008D5236961689942DEBF302305F8013CF7
:1072600005F1FF35521B2261CDF800A04B4603AA61
:1072700021464046FFF7E4FE01304AD14FF0FF308F
:1072800004B0BDE8F087236843F02003236033484F
:10729000782784F84570236829681F0651F8046B25
:1072A00002D45F0648BFB6B2DF0748BF43F02003F1
:1072B000296048BF23601EB9236823F020032360A0
:1072C0001023A7E72448E4E71546BDE72B682668A6
:1072D0006169181D286035061B6801D5196002E038
:1072E0007006FBD51980002323611546BCE72B6887
:1072F0001A1D2A601D68626800212846FBF768FF96
:1073000008B1401B606063682361002384F8433048
:10731000AAE723692A4649464046D0470130ADD006
:1073200023689B0713D4E068039B9842B8BF1846B4
:10733000A6E70123324649464046D04701309DD05A
:107340000135E36803995B1AAB42F2DCEBE70025F9
:1073500004F11906F5E700BF8D7700089E77000855
:107360008A892DE9F041054610070C4658D44B6830
:10737000002B05DC0B6C002B02DC0020BDE8F0814B
:10738000E66A002EF9D0002312F480522F68216A99
:107390002B6032D0606DA3895A0705D56368C01A87
:1073A000636B0BB1236CC01A00230246E66A216AA4
:1073B0002846B047431CA38906D129681D292BD82C
:1073C000294A0A41D60727D400226260D9042269DB
:1073D000226004D5421C01D12B6803B96065616B42
:1073E0002F600029C9D004F14403994202D02846F5
:1073F000FFF7EAFB00206063C0E701232846B0479F
:10740000411CC8D12B68002BC5D01D2B01D0162BD9
:1074100001D12F60B1E7A38943F04003A381ADE719
:107420000F69002FA9D093070E6808BF4B690F6042
:1074300018BF0023A6EB07088B60B8F1000F9CDD96
:10744000216AA66A43463A462846B047002806DC29
:10745000A38943F04003A3814FF0FF308EE7074438
:10746000A8EB0008E9E700BFFEFFBFDF38B50B69F6
:1074700005460C4613B90025284638BD18B1036AE5
:107480000BB9FFF799FAB4F90C30002BF3D0626E08
:10749000D00704D4990502D4A06DFFF792FB2846CB
:1074A0002146FFF75DFF636EDA070546E4D4A38942
:1074B0009B05E1D4A06DFFF785FBDDE7F8B50E462F
:1074C0001446054618B1036A0BB9FFF775FAA369AC
:1074D000A360A3891A0725D523691BB323682269F2
:1074E000981A6369F6B28342374604DC214628467F
:1074F000FFF7BCFFE0B9A368013BA36023685A1CF7
:1075000022601E706269431C9A4204D0A389DB0783
:1075100006D50A2E04D121462846FFF7A7FF38B921
:107520003846F8BD2146284600F006F80028D5D098
:107530004FF0FF37F4E7000038B52A4B05461868CE
:107540000C4618B1036A0BB9FFF736FAA389B4F9F0
:107550000C20180722D4D90607D409232B6042F047
:107560004003A3814FF0FF3034E0580712D5616B20
:1075700041B104F14403994202D02846FFF724FBAD
:1075800000236363A38923F02403A38100236360A2
:1075900023692360A38943F00803A38123694BB9BE
:1075A000A38903F42073B3F5007F03D02146284656
:1075B00000F050F8A089B4F90C2010F001030AD0B3
:1075C0000023A36063695B42A361236943B910F0A0
:1075D0008000C4D138BD810758BF6369A360F4E758
:1075E0000020F7E78400002038B5064D002304464C
:1075F00008462B60FCF7DEF9431C02D12B6803B16F
:10760000236038BDCC02002070B50C46B1F90E10D5
:10761000002996B015461E460DDAA38913F0800F97
:107620004FF000010CBF4FF4806340230020316015
:107630002B6016B070BD6A4600F048F80028ECDBFD
:10764000019901F47041A1F50053594259414FF499
:107650008063EBE78B8973B59D0706460C4607D51B
:1076600004F14703236023610123636102B070BD0D
:1076700001AB6A46FFF7C8FF009905463046FFF7A1
:107680000FFB48B9B4F90C309A05EFD423F003038B
:1076900043F00203A381E3E7A389206043F0800362
:1076A000A381009B6361019B20615BB1B4F90E1063
:1076B000304600F01DF828B1A38923F0030343F0FE
:1076C0000103A381A3891D43A581CFE738B5074DE9
:1076D00000230446084611462B60FCF742F9431C80
:1076E00002D12B6803B1236038BD00BFCC0200205B
:1076F00038B5064D0023044608462B60FCF741F9D7
:10770000431C02D12B6803B1236038BDCC0200209A
:10771000F8B500BFF8BC08BC9E467047F8B500BF7E
:08772000F8BC08BC9E4670474E
:107728004F4B00005342414E000000000000000093
:107738000000000001020304060708090000000019
:1077480001020304A0860100400D0300801A060010
:1077580000350C0040420F0080841E0000093D00E7
:1077680000127A000024F40000366E010048E80197
:10777800006CDC02232D302B2000686C4C00656601
:10778800674546470030313233343536373839416A
:107798004243444546003031323334353637383980
:0877A800616263646566000084
:0877B000F0BAFF7F01000000A8
:0477B800B5310008DF
:0477BC0091310008FF
:1077C00000093D0010000000010000000000000062
:1077D00000000000000000000000000001000000A8
:1077E0000000000000000000000000000000000099
:1077F0000300000090010020000000009001002024
:10780000F8010020600200200000000000000000DD
:107810000000000000000000000000000000000068
:107820000000000000000000000000000000000058
:107830000000000000000000000000000000000048
:087840000000000038000020E8
:0400000508003C357E
:00000001FF
