:020000040800F2
:1030000000A00020A939000885370008873700088C
:10301000893700088B3700088D3700080000000052
:103020000000000000000000000000008F370008D2
:10303000913700080000000093370008953700081A
:10304000F9390008F9390008F9390008F939000898
:10305000F9390008F9390008F9390008F939000888
:10306000F9390008F9390008F9390008F939000878
:10307000F9390008F9390008F9390008F939000868
:10308000F9390008F9390008F93900080000000092
:10309000000000000000000000000000F9390008F6
:1030A000F9390008F9390008F9390008F939000838
:1030B000F93900080000000000000000F93900089C
:1030C000F9390008F9390008F9390008F939000818
:1030D000F9390008F9390008F9390008F939000808
:1030E000F9390008F939000800000000000000006C
:1030F00000000000000000000000000000000000D0
:1031000000000000000000000000000000000000BF
:1031100000000000000000009937000800000000D7
:10312000F9390008F9390008F9390008F9390008B7
:10313000F939000800000000000000000000000055
:10314000F9390008F9390008F9390008F939000897
:10315000F9390008F9390008F9390008F939000887
:10316000F9390008F93900080000000000000000EB
:1031700000000000F9390008000000000000000015
:0C318000F9390008F9390008F939000895
:1031900010B5054C237833B9044B13B10448AFF391
:1031A00000800123237010BD880000200000000073
:1031B0003C61000808B5034B1BB103490348AFF35A
:1031C000008008BD000000008C0000203C61000869
:1031D00001F0FF01102A2BDB10F0070F08D010F8C8
:1031E000013B013A8B422DD010F0070F42B3F6D1CC
:1031F000F0B441EA012141EA014122F007047FF0E5
:1032000000070023F0E80256083C85EA010586EA3B
:10321000010685FA47F5A3FA87F586FA47F6A5FA77
:1032200087F68EB9EED1F0BC01F0FF0102F0070283
:1032300032B110F8013B013A83EA010313B1F8D12E
:103240000020704701387047002D06BF354603380F
:10325000073815F0010F07D1013015F4807F02BF48
:10326000013015F4C03F0130F0BC0138704700BF99
:1032700053B94AB9002908BF00281CBF4FF0FF31DD
:103280004FF0FF3000F070B9ADF1080C6DE904CEDD
:1032900000F006F8DDF804E0DDE9022304B0704731
:1032A0002DE9F047089E0D4604460F46002B4AD1F3
:1032B0008A42944665D9B2FA82F343B102FA03FC1A
:1032C000C3F120029F4020FA02F217439C404FEACC
:1032D0001C4E1FFA8CF5B7FBFEF1220C0EFB11778A
:1032E00042EA074201FB05F090420AD91CEB0202B8
:1032F00001F1FF3780F01C81904240F219810239C0
:103300006244121AA4B2B2FBFEF00EFB102244EA91
:10331000024400FB05F5A5420AD91CEB040400F1A8
:10332000FF3280F00781A54240F2048164440238F4
:1033300040EA0140641B00211EB1DC400023C6E9C5
:103340000043BDE8F0878B4208D9002E00F0ED80E5
:103350000021C6E900050846BDE8F087B3FA83F10D
:10336000002949D1AB4202D3824200F2F880841A8C
:1033700065EB030201201746002EE2D0C6E90047A4
:10338000DFE702B9FFDEB2FA82F3002B40F0908053
:103390008A1A4FEA1C471FFA8CFE0121B2FBF7F58F
:1033A00007FB1520220C42EA00420EFB05F090427A
:1033B00008D91CEB020205F1FF3802D2904200F25C
:1033C000CB804546121AA4B2B2FBF7F007FB1022DD
:1033D00044EA02440EFB00FEA64508D91CEB040497
:1033E00000F1FF3202D2A64500F2BB801046A4EBEA
:1033F0000E0440EA05409FE7C1F120078B4022FA06
:1034000007FC4CEA030C05FA01F420FA07F3FD402F
:103410004FEA1C492343B5FBF9F81FFA8CFE09FB60
:1034200018551C0C44EA054408FB0EF5A54202FAA7
:1034300001F200FA01F00BD91CEB040408F1FF3A89
:1034400080F08880A54240F28580A8F1020864449B
:10345000641B9DB2B4FBF9F309FB134445EA044431
:1034600003FB0EFEA64508D91CEB040403F1FF354F
:103470006CD2A6456AD9023B644443EA0843A3FBE5
:103480000295A4EB0E04AC42C846AE4656D353D0C8
:1034900056B1B0EB080264EB0E0404FA07F7CA4019
:1034A000CC401743C6E9007418460021BDE8F087F8
:1034B000C3F1200102FA03FC20FA01F225FA01F11E
:1034C0009D402A434FEA1C471FFA8CFEB1FBF7F0E0
:1034D00007FB1015110C41EA054100FB0EF58D426A
:1034E00004FA03F408D91CEB010100F1FF382FD2D4
:1034F0008D422DD902386144491B92B2B1FBF7F5D8
:1035000007FB151142EA014205FB0EF1914208D971
:103510001CEB020205F1FF3816D2914214D9023D8C
:103520006244521A45EA004138E73146304608E71E
:103530003946E6E61046FBE64845A9D2B9EB020853
:1035400065EB0C0E013BA3E74546EAE72B4694E703
:103550004046D1E7D0467BE7023D624432E7084669
:103560000AE76444023842E7704700BF10B586B0EE
:103570003E2201230024CDE90423029400F002FB43
:1035800001A902A8019400F0E1FB06B010BD000003
:1035900030B585B0FFF7EAFF104B11494FF4604298
:1035A000C3E9001201229A6093E8070000246D46E7
:1035B000039485E807000B49DDE90023204600F06D
:1035C0001FFBDDE902230849204600F019FB0748EC
:1035D00005B0BDE8304001F03BBF00BFA4000020B3
:1035E0005342414E00F0010808F001085461000800
:1035F00000B589B01422002103A801F07EFF174B0B
:103600001748DA6C42F00402DA64DA6C02F0040261
:103610000092009ADA6C42F00102DA64DA6C02F08D
:1036200001020192019ADA6C42F00202DA64DB6C68
:1036300003F00203029300220821029B00F0AEFC7B
:1036400008220123CDE903230548002303A9CDE97E
:10365000053300F0E5FB09B05DF804FB0010024003
:103660000004004807B54FF6FF730190012201A93D
:10367000034801F051FD019803B05DF804FB00BF61
:103680000401002010B5064C06482278082100F0FD
:1036900085FC2378013B18BF0123237010BD00BFB8
:1036A000B00000200004004830B597B0442200214B
:1036B00005A8142501F021FF2A460021684601F0E3
:1036C0001CFF4FF4007000F07FFC044608B172B696
:1036D000FEE700F069FC134AD2F8903023F018039B
:1036E000C2F8903005A80595A0230125CDE90C541A
:1036F00007950E93109400F02DFD08B172B6FEE709
:103700000F23CDE90030CDE9020004902946684638
:1037100000F0F6FF08B172B6FEE701F0B5F917B098
:1037200030BD00BF0010024008B500F08DF9FFF772
:10373000BBFFFFF75DFF00F0CBF800F085F8034812
:1037400001F0AAF9FFF724FFFEE700BFB800002050
:1037500072B6FEE70A4B1A6E42F001021A661A6E42
:1037600082B002F001020092009A9A6D42F08052FB
:103770009A659B6D03F080530193019B02B07047E3
:1037800000100240FEE7FEE7FEE7FEE7FEE77047B7
:103790007047704700F068B9014801F0ABB900BF4D
:1037A000B800002070B50D4614460E46731B9C42AF
:1037B00001DC204670BDAFF3008006F8010BF5E791
:1037C00070B50D4614460E46731B9C4201DC204624
:1037D00070BD16F8010BFFF745FFF5E74FF0FF301E
:1037E00070474FF400534B60002070470120704732
:1037F000002070470B4A116810B5034609B90A4901
:103800001160106809490A4C0344091B8B4206D910
:1038100001F0C2FE0C2303604FF0FF3010BD1360B7
:10382000FCE700BFB4000020E002002000A0002060
:1038300000040000034AD2F8883043F47003C2F851
:103840008830704700ED00E01FB50F480F4A40F286
:10385000E7330024C0E9002347F6FF43CDE90144E4
:1038600003948460C360846101F01EFA08B1FFF71D
:103870006FFF0548019401A9039401F045FA08B1CE
:10388000FFF766FF04B010BDB80000200010004034
:1038900007B50E4B02689A4215D103F50033362066
:1038A0009A6D42F010029A659B6D002203F010039E
:1038B00001931146019B00F0FBF8362003B05DF840
:1038C00004EB00F027B903B05DF804FB00100040E2
:1038D0000C480D4A08B54FF4E133C0E9002300233A
:1038E0000C22C0E90233C0E90523C0E907330361B4
:1038F000436201F0BDFC18B1BDE80840FFF728BFE6
:1039000008BD00BF040100200044004070B594B021
:1039100004461422002102A801F0EFFD3422002108
:1039200007A801F0EAFD22681D4B9A4235D1022317
:1039300007A8079300F0B2FF08B1FFF709FF194B82
:103940009A6D42F400329A659A6D02F40032009248
:10395000009ADA6C42F00102DA64DB6C03F00103D6
:103960000193019B022604230324CDE9023600259E
:10397000072302A94FF090400693CDE9045400F0CC
:103980004FFA4FF4004302A94FF09040CDE90236C0
:10399000CDE90454069400F043FA14B070BD00BFA2
:1039A0000044004000100240DFF834D0FFF742FF2F
:1039B0000C480D490D4A002302E0D458C45004338A
:1039C000C4188C42F9D30A4A0A4C002301E0136060
:1039D0000432A242FBD301F0E5FDFFF7A5FEFEE7AE
:1039E00000A000200000002088000020F4610008F2
:1039F00088000020DC020020FEE7000038B50F4BF5
:103A00001A7805460AB9012038BD4FF47A73B3FB22
:103A1000F2F30B4A1068B0FBF3F000F089F80446AB
:103A20000028F0D10F2DEED8024629464FF0FF3086
:103A300000F03EF8034B20461D60E5E7040000203F
:103A4000000000200800002010B5032000F01EF840
:103A50000020FFF7D3FF044618B9FFF77BFE20468E
:103A600010BD0124FBE70000034A044B11681B78DA
:103A70000B441360704700BF8C010020040000203D
:103A8000014B1868704700BF8C0100200749CA68C5
:103A900022F4E0620302120403F4E063120C134305
:103AA00043F0BF6343F40033CB60704700ED00E0A8
:103AB000164B30B5DC68C4F30224C4F10703251D9E
:103AC000042B28BF0423062D4FF0FF358CBF033C89
:103AD000002405FA03F321EA0303A54022EA0502C4
:103AE000A340002843EA0203ACBF00F16040084A4B
:103AF0004FEA0313B8BF00F00F00DBB2AABF00F516
:103B00006140135480F8003330BD00BF00ED00E089
:103B100014ED00E0002807DB044A4109012300F00E
:103B20001F00834042F82130704700BF00E100E0F1
:103B30000138B0F1807F0BD24FF0E023054A586185
:103B4000F02182F823100020072298611A61704743
:103B50000120704700ED00E0094A536943F48023D7
:103B600010B55361EFF3108272B60023CC58C450E5
:103B70000433B3F5807FF9D182F3108810BD00BF04
:103B800000200240064B5A69002ABFBF054A9A60CE
:103B900002F188329A60BABF5869C00F002070479E
:103BA000002002402301674570B50546FFF768FF16
:103BB000104C06462369DB030AD423690E4A1340DE
:103BC0000FD00E494A681A434A600120236170BD34
:103BD0006A1CEFD0FFF754FF801BA842EAD30320F2
:103BE000F5E7206910F00100F1D0012222611846AA
:103BF000EDE700BF00200240FAC302000C000020E5
:103C00002DE9F843254D99462B78012B04460F46A4
:103C1000904641D001234CF250302B70FFF7C4FF87
:103C2000064630BB68601E48026812F4806217BF07
:103C300003682A7723F4806303601CBF02232B7779
:103C4000E4B9436943F001034361C7F80080BFF35F
:103C50006F8F0124C7F804904CF25030FFF7A4FF97
:103C6000064624B10E4A536923EA0403536100F067
:103C70003DF800232B703046BDE8F883631E012B0E
:103C800008D841463846FFF767FFA31E5C425C41F7
:103C9000A404E1E70024DFE70226ECE70C000020A3
:103CA00000200240064B10F0010F1EBF5A6942F07F
:103CB00004025A615A6942F480325A61704700BF67
:103CC00000200240084B5A69C00022F4FC7200F444
:103CD000FF60104358615A6942F002025A615A6902
:103CE00042F480325A617047002002401548037F39
:103CF000DAB203F0FD03012B10D1134B196821F444
:103D000000711960196841F400611960196821F4A3
:103D100000611960196841F400711960931E012B4C
:103D20000CD8094B1A6842F480521A601A6822F4BF
:103D300080521A601A6842F480621A600023037786
:103D4000704700BF0C000020002002402DE9F8431E
:103D5000314D2B78012B064688465AD001274CF26C
:103D600050302F70FFF720FF044610BB2B4B6860CC
:103D70001A6812F4007F1A6820D0510506D51A6817
:103D800022F480621A6003232B7700E02F773368D8
:103D9000012B1DD17068FFF785FF4CF25030FFF703
:103DA00003FF1E4A536923F0040304465361FFF7DF
:103DB0009DFF00232B702046BDE8F883520505D5F2
:103DC0001A6822F480621A600223DDE72877DEE7B2
:103DD0004FF0FF33C8F80030B768DFF84090D6E9FD
:103DE00002321344BB42E2D971683846FFF76AFFDA
:103DF0004CF25030FFF7D8FED9F8143023F4FD739D
:103E0000C9F8143018B1C8F800700446CFE701377C
:103E1000E5E70224CFE700BF0C00002000200240AD
:103E20002DE9F74FDFF87091594C00230A6832FAF8
:103E300003F502D103B0BDE8F08F012505FA03F8C0
:103E400018EA020200F09C804E68032706F0030582
:103E50004FEA430E07FA0EFC6F1E012F6FEA0C0C9F
:103E600034D8876807EA0C0ACF6807FA0EF747EAE2
:103E70000A078760476827EA0808C6F300179F40CB
:103E800047EA08074760C76807EA0C088F6807FA1F
:103E90000EF747EA0807022DC76019D14FEAD30889
:103EA00000EB880803F0070AD8F820704FEA8A0A66
:103EB0004FF00F0B0BFA0AFB27EA0B0B0F6907FAFF
:103EC0000AF747EA0B07C8F8207001E0032DDAD1A2
:103ED000076805FA0EF507EA0C073D4316F4403F64
:103EE00005604DD0D9F8605045F00105C9F8605023
:103EF000D9F8605023F0030707F1804705F001056A
:103F000007F58037019503F0030C019DBD684FEA6A
:103F10008C0C4FF00F0E0EFA0CFEB0F1904F25EA0C
:103F20000E0E2FD01B4DA8422ED005F58065A8425D
:103F30002CD005F58065A8420CBF0325072505FA9E
:103F40000CF545EA0E05BD60A568D74316F4801F41
:103F50000CBF3D401543A560E56816F4001F0CBF7B
:103F60003D401543E560656816F4003F0CBF3D40D9
:103F7000154365602568F60354BF3D401543256031
:103F8000013353E70025DAE70125D8E70225D6E714
:103F90000004014000040048001002400AB18161A1
:103FA0007047816270470000024A136843F48073CF
:103FB0001360704700700040024B186800F4C06046
:103FC000704700BF00700040174A1368B0F5007FCB
:103FD00003F4C0631DD1B3F5007F01D10020704709
:103FE000136823F4C06343F4007313600F4B1B6822
:103FF00032214B430E49B3FBF1F3013351694905BB
:1040000000D523B953695B05E8D503207047013B10
:10401000F4E7B3F5806F1FBF136823F4C06343F464
:1040200080631360DAE700BF0070004000000020EA
:1040300040420F0037B51E4DAB6DDA00044618D56F
:10404000FFF7BAFFB0F5007F23D1802C29D9A02C2F
:104050008CBF0224012417490A6822F00702224378
:104060000A60086800F00700001B18BF012003B0B9
:1040700030BDAB6D43F08053AB65AB6D03F0805347
:104080000193019BFFF798FFAB6D23F08053AB6565
:10409000D8E7802C07D808D0A4F170035C425C41BB
:1040A000D9E70024D7E70324D5E70224D3E700BFEC
:1040B0000010024000200240224B9A68D96812F09A
:1040C0000C0205D00C2A15D101F00301012918D1E9
:1040D00019681D48090755BFD3F894101968C1F332
:1040E0000321C1F3031150F821004AB30C2A09D06F
:1040F00000207047042A22D0082A144818BF002044
:1041000070470020DA6802F00302022A15D00F4936
:10411000032A08BF0846D968DA68C2F30622424378
:10412000D868C0F34160C1F3021101300131400091
:10413000B2FBF1F2B2FBF0F070470548EBE7044840
:10414000704700BF001002407061000800127A0042
:104150000024F4002DE9F743054618B9012003B007
:10416000BDE8F083944C0368A668E768DB0606F0B8
:104170000C0607F003073DD51EB10C2E6AD1012FA6
:1041800068D12368980702D5EB69002BE6D0236835
:10419000686A190756BFD4F8943023681B0903F0E6
:1041A000F00398423FD9FFF745FF0028D6D1236896
:1041B00043F00803236023686A6A23F0F003134383
:1041C000236063682A6A23F47F4343EA022363601F
:1041D000FFF772FFA368794AC3F30313D35C03F0BC
:1041E0001F03D840764B1860764B1868FFF706FC23
:1041F0000028B4D12B68D80763D42B68990700F145
:10420000A2802B68180700F1DF802B68590700F1A6
:104210002F812B68990600F1AB81EB6A002B40F0EF
:10422000D18100209BE7236843F0080323602368C3
:1042300023F0F0030343236063682A6A23F47F4377
:1042400043EA02236360002EC2D1FFF7F3FE002889
:10425000BED083E7EB691BB3236843F001032360FF
:10426000FFF70EFC804623689A0711D5236843F0B8
:104270000803236023686A6A23F0F0031343236072
:1042800063682A6A23F47F4343EA02236360B1E749
:10429000FFF7F6FBA0EB08000228E4D903205EE755
:1042A000236823F001032360FFF7EAFB80462368BD
:1042B0009B079FD5FFF7E4FBA0EB08000228F6D987
:1042C000ECE7082E03D00C2E08D1032F06D123686B
:1042D0009A0392D56B68002B8FD13FE76B68B3F5DB
:1042E000803F10D1236843F480332360FFF7C8FB7D
:1042F000804623689B0380D4FFF7C2FBA0EB080035
:104300006428F6D9CAE7B3F5A02F04D1236843F493
:1043100080232360E6E7226822F48032226022684C
:1043200022F480222260002BE0D1FFF7A9FB804617
:10433000236898037FF561AFFFF7A2FBA0EB0800AD
:104340006428F5D9AAE7042E03D00C2E10D1022F31
:104350000ED12368590503D5EB68002B3FF4FEAE60
:1043600063682A6923F0FE4343EA0263636048E717
:10437000EB687BB1236843F480732360FFF780FB15
:10438000074623685A05EBD4FFF77AFBC01B0228C7
:10439000F7D983E7236823F480732360FFF770FB6A
:1043A000074623685B057FF52CAFFFF769FBC01B51
:1043B0000228F6D972E700BF0010024057610008DA
:1043C00000000020080000206B69002B3CD0D4F8CE
:1043D0009430A96903F0100291420ED003F0030259
:1043E000022A3FF4BBAEDA071BD4D4F89430AA6992
:1043F00023F010031343C4F89430D4F8943043F0FE
:104400000103C4F89430FFF73BFB0746D4F894301F
:1044100098073FF5FAAEFFF733FBC01B1128F5D91B
:104420003CE7D4F8943023F00103C4F89430FFF74C
:1044300027FB0746D4F894309B07D6D5FFF720FB1F
:10444000C01B1128F6D929E7D4F8943023F00103D2
:10445000C4F89430FFF714FB0746D4F8943099075A
:104460007FF5D3AEFFF70CFBC01B1128F5D915E77C
:10447000A36DDA0030D4A36D43F08053A365A36D20
:1044800003F080530193019B0127DFF87082D8F875
:104490000030DB0522D5AA68D00733D4D4F8903099
:1044A00023F00103C4F89030D4F8903023F00403D3
:1044B000C4F89030002A3CD1FFF7E2FA41F2883983
:1044C0008046D4F8903098074BD4D4F8903023F03D
:1044D0008003C4F8903035E00027D6E7D8F80030E4
:1044E00043F48073C8F80030FFF7CAFA8146D8F861
:1044F0000030D905CFD4FFF7C3FAA0EB090002289A
:10450000F5D9CBE6D4F8903002F0800123F0800397
:104510000B43C4F89030D4F89030520742BF43F0B8
:104520000403C4F89030D4F8903043F00103C4F889
:104530009030FFF7A5FA41F288398046D4F89030E0
:104540009B0707D5002F3FF464AEA36D23F0805383
:10455000A3655EE6FFF794FAA0EB08004845EDD9A5
:104560009CE6FFF78DFAA0EB08004845A9D995E62F
:10457000AB6A9BB1D4F8983043F00103C4F898308B
:10458000FFF77EFA0746D4F898309A073FF545AE14
:10459000FFF776FAC01B0228F5D97FE6D4F89830E9
:1045A00023F00103C4F89830FFF76AFA0746D4F8FD
:1045B00098309B077FF531AEFFF762FAC01B0228E7
:1045C000F5D96BE6022B7AD1E3682A6B03F003017D
:1045D00091421CD1696B03F070020139B2EB011FEB
:1045E00015D1A96B03F4FE42B2EB012F0FD1EA6B98
:1045F000520803F4C001013AB1EB425F07D12A6CC3
:10460000520803F0C063013AB3EB426F3ED00C2E68
:104610003FF4A4AD236823F080732360FFF730FAE2
:104620000646236898012BD4E268334B13402A6B6B
:104630001343AA6B43EA02236A6B013A43EA02136B
:10464000EA6B5208013A43EA42532A6C5208013A93
:1046500043EA4263E360236843F080732360E368C6
:1046600043F08073E360FFF70BFA05462368990176
:104670003FF5D7ADFFF704FA401B0228F6D90DE647
:10468000FFF7FEF9801B0228CBD907E623689A01C1
:104690003FF5C7AD236843F080732360E36843F0C0
:1046A0008073E360FFF7ECF9054623689B013FF553
:1046B000B8ADFFF7E5F9401B0228F6D9EEE50C2E60
:1046C0003FF44CAD236823F080732360FFF7D8F9E3
:1046D0000546236813F0007307D1E26822F0887260
:1046E00022F00302E260184639E5FFF7C9F9401BE2
:1046F0000228EED9D2E500BF8C809FF900700040FF
:104700002DE9F0410D46044610B90120BDE8F081C5
:104710004B4A136803F007038B422CD321688807A8
:1047200034D4C9073FD421688A0768D4444A13683F
:1047300003F00703AB426FD811F0040F414D77D15E
:104740000B0706D5AB68226923F4605343EAC20322
:10475000AB60FFF7B1FCAB683B4AC3F30313BDE8A2
:10476000F041D35C03F01F03D840384B1860384B3E
:104770001868FFF743B9136823F007030B4313606E
:10478000136803F007038B42BFD1C7E72D4AA06827
:10479000936803F0F003984281BF936823F0F0031D
:1047A00003439360BDE76268264E032A33681AD13B
:1047B00013F0007FA9D0B36823F003031343B36061
:1047C000FFF75EF941F288380746B368626803F084
:1047D0000C03B3EB820FA6D0FFF752F9C01B404584
:1047E000F3D9032092E7022A02D113F4003FE1E754
:1047F00012B913F0020FDDE713F4806FDAE7114A04
:10480000A068936803F0F00398423FBF936823F0D9
:10481000F0030343936089E7136823F007032B43F6
:104820001360136803F00703AB427FF46EAF83E7B6
:10483000AB68E26823F4E0631343AB6080E700BF3A
:1048400000200240001002405761000800000020D4
:1048500008000020054B064A9B68C3F30223D35C83
:10486000044A106803F01F03D8407047001002404C
:104870006761000800000020054B064A9B68C3F3EF
:10488000C223D35C044A106803F01F03D84070476A
:104890000010024067610008000000202DE9F3418C
:1048A0000446006810F4003039D0754DAB6DD80067
:1048B00027D4AB6D43F08053AB65AB6D03F08053F1
:1048C0000193019B01266F4F3B6843F480733B606B
:1048D000FFF7D6F880463B68D90514D5D5F8903057
:1048E000226B13F4407302D0934240F0A380D5F8BA
:1048F0009030226B23F440731343C5F890300020AE
:1049000008E00026DFE7FFF7BBF8A0EB080002286D
:10491000E1D903201EB1AB6D23F08053AB65236852
:10492000DF0708D556496568D1F8882022F00302D0
:104930002A43C1F888209E0708D55149A568D1F8B7
:10494000882022F00C022A43C1F888205D0708D590
:104950004B49E568D1F8882022F030022A43C1F89B
:104960008820990608D546492569D1F8882022F47F
:1049700040622A43C1F888209A0508D54049256A33
:10498000D1F8882022F440222A43C1F888205F050C
:1049900008D53B49656AD1F8882022F440122A43A1
:1049A000C1F888205E0608D535496569D1F88820A8
:1049B00022F440522A43C1F888201D0608D5304908
:1049C000A569D1F8882022F440422A43C1F8882002
:1049D000D90508D52A49E569D1F8882022F4403262
:1049E0002A43C1F888209A040FD52549A56AD1F831
:1049F000882022F040622A43C1F88820B5F1006F78
:104A000002BFCA6842F48012CA605B030FD51C4A19
:104A1000E16AD2F8883023F040630B43B1F1006FB4
:104A2000C2F8883003D1D36843F48013D36002B056
:104A3000BDE8F081D5F89020D5F8903043F480336C
:104A4000C5F89030D5F8903022F4407123F48033CB
:104A5000D207C5F89030C5F890107FF548AFFFF742
:104A60000FF841F288380746D5F890309B073FF59C
:104A70003EAFFFF705F8C01B4045F5D949E700BF39
:104A80000010024000700040024A136843F0040323
:104A9000136070470010024090F83D30012B1FD189
:104AA000022380F83D300368DA6842F00102DA60E0
:104AB0000C4A934206D0B3F1804F03D002F5A052C6
:104AC000934207D19968084A0A40062A06D0B2F5EF
:104AD000803F03D01A6842F001021A60002070473C
:104AE00001207047002C014007000100704770470B
:104AF00070477047036870B5DD681E69B2070446E9
:104B00000DD5A9070BD56FF002021A6101220277B9
:104B10009B699A0774D0FFF7EAFF00232377730796
:104B200010D568070ED523686FF004021A610222BF
:104B300022779B6913F4407F204667D0FFF7D7FFA9
:104B40000023237731070FD52A070DD523686FF08F
:104B500008021A6104222277DB699B0720465BD09A
:104B6000FFF7C5FF00232377F00610D5E9060ED521
:104B700023686FF010021A6108222277DB6913F4B0
:104B8000407F20464ED0FFF7B2FF00232377F20785
:104B900008D5EB0706D523686FF001021A6120469D
:104BA000FEF770FD300608D5290606D523686FF09C
:104BB00080021A61204600F0DAF8F20508D52B06CB
:104BC00006D523686FF480721A61204600F0D0F891
:104BD000700608D5690606D523686FF040021A6191
:104BE0002046FFF786FFB20622D5AB0620D5236804
:104BF0006FF0200220461A61BDE8704000F0B6B8A0
:104C0000FFF774FF2046FFF773FF86E7FFF76EFF9D
:104C10002046FFF76DFF93E7FFF768FF2046FFF799
:104C200067FF9FE7FFF762FF2046FFF761FFACE7F2
:104C300070BD00001A4A0368904210B502D0B0F16E
:104C4000804F09D14C6823F07003904243EA04037B
:104C500009D0B0F1804F06D0124A904203D002F53D
:104C60008062904203D1CA6823F4407313434A69B7
:104C700023F08003134303608B68C3620B68836275
:104C8000074B984207D003F5A053984203D003F591
:104C90008063984201D10B6903630123436110BD16
:104CA000002C01400040014010B5044650B390F87C
:104CB0003D3003F0FF021BB980F83C20FEF7E8FD11
:104CC0000223206884F83D30211DFFF7B3FF012344
:104CD00084F84830002084F83E3084F83F3084F86F
:104CE000403084F8413084F8423084F8433084F80E
:104CF000443084F8453084F8463084F8473084F8EE
:104D00003D3010BD0120FCE770B590F83C30012B20
:104D10004FF0020323D00268124D80F83D305368F3
:104D20009468AA4202BF4E6823F4700333430E68AE
:104D300023F070033343AA42536005D0B2F1804F91
:104D400002D0094B9A4204D1896824F080030B43B6
:104D50009360012380F83D30002380F83C301846F2
:104D600070BD00BF002C01400040014070477047FB
:104D70007047026852E8003F23F4907342E8003124
:104D800002680029F5D102F1080353E8003F23F03F
:104D9000010302F1080C4CE800310029F3D1036E45
:104DA000012B07D152E8003F23F0100342E8003105
:104DB0000029F7D12023C0F88030002303668366E2
:104DC0007047000070B5044603682169A2681D6839
:104DD000C0690A4361690A437949024329400A4389
:104DE0001A605A68E16822F440520A435A60754AD0
:104DF000A16993421CBF226A11439A6822F430626F
:104E00000A439A60704A934217D1704BD3F88830A6
:104E100003F00303013B022B00F2B0806C4AD35C29
:104E2000B0F5004F40F08B80082B22D8DFE803F06C
:104E300069A98521822121216D00664A934206D10C
:104E4000624B654AD3F8883003F00C03E7E7634A06
:104E5000934218D15D4BD3F8883003F03003202BF8
:104E600000F0878007D8002B00F09480102B00F012
:104E70008B80012024E0302BFBD1B0F5004F44D0D3
:104E80004FF400408DE04F4A9342F2D14F4BD3F89C
:104E9000883003F44063B3F5006F15D006D85BB1DA
:104EA000B3F5806FE5D1FFF707F907E0B3F5406F81
:104EB000DFD14FF4004008E0FFF7CCFC28B9002018
:104EC0000023C4E91A3370BD4548626802EB42030F
:104ED0008342CED8B0EB023FCBD8510800258C4698
:104EE0004FF480762946E0FB06C12B466046FEF76C
:104EF000BFF93C4BA0F540729A42BAD82368D860FB
:104F0000DDE7FFF7A7FC0028D9D06268530803EB60
:104F10004003B3FBF2F34FF6EF72A3F1100191429D
:104F2000A7D823F00F02216892B2C3F342031343C0
:104F3000CB60C4E7FFF7C0F8E5E72948E5E7082BB1
:104F400097D801A252F823F09B4F00086D4F00083C
:104F5000794F0008734E00088F4F0008734E000809
:104F6000734E0008734E0008814E0008FFF784FC62
:104F700015E0B0F5004FE0D0194812E0B0F5004F51
:104F8000F4D1FFF779FCBEE7B0F5004FD2D0FFF7C0
:104F900093F804E0B0F5004FB3D0FFF75BFC0028B6
:104FA0008DD0626800EB5203B3FBF2F34FF6EF7261
:104FB000A3F1100191423FF65CAF2268D3607EE717
:104FC000F369FFEF0080004000380140001002400C
:104FD000A061000800440040A361000800480040B0
:104FE0000024F400FFFC0F00436A1A0710B506D531
:104FF0000168446B4A6822F4004222434A60DC079D
:1050000006D50168846A4A6822F4003222434A6065
:10501000990706D50168C46A4A6822F4803222439F
:105020004A605A0706D50168046B4A6822F4802258
:1050300022434A60DC0606D50168846B8A6822F444
:10504000805222438A60990606D50168C46B8A683B
:1050500022F4005222438A605A060FD50168046C7C
:105060004A6822F480122243B4F5801F4A6005D1B9
:105070004A68446C22F4C00222434A601B0606D5EB
:105080000268816C536823F400230B43536010BD06
:105090002DE9F843DDF8209004460F461646984661
:1050A0002268D36937EA03030CBF01230023B3420C
:1050B00001D000201EE0B9F1FF3FF2D0FEF7E0FC86
:1050C000A0EB0800484525D8B9F1000F22D0206890
:1050D00003685A07E4D5C56915F008050CD0082502
:1050E00005622046FFF745FE0023C4F8845084F88B
:1050F00078300120BDE8F883C3691B05D0D54FF493
:10510000006303622046FFF734FE2023C4F8843096
:1051100084F878500320EDE72DE9FF419846C36FEE
:10512000202B04460E46174644D1002944D0002ABD
:1051300042D021230025C0F88450C367FEF7A0FCAD
:10514000A268A4F85070B2F5805F0346A4F85270CC
:1051500003D122690AB935461646B4F85220CDF873
:10516000008092B24AB940212046FFF791FF2023E8
:10517000E36760B904B0BDE8F081002280212046D9
:105180000393FFF785FF039B18B12023E3670320F8
:10519000F0E721685EB935F8022BC2F308020A85F0
:1051A000B4F85220013A92B2A4F85220D5E716F88A
:1051B000012BF4E70220DDE70120DBE730B50446F0
:1051C000002585B0C0F88450FEF75AFC22681268AA
:1051D000110703461CD56FF07E42009203902A46C9
:1051E0004FF400112046FFF753FF039B80B1226864
:1051F00052E8003F23F0800342E800310029F6D155
:105200002023E3670320002384F8783005B030BD05
:1052100022681268520723D56FF07E4200924FF445
:10522000800100222046FFF733FFC8B1226852E810
:10523000003F23F4907342E8003122680029F5D141
:1052400002F1080353E8003F23F0010302F10800D4
:1052500040E800310029F3D12023C4F88030D1E7A1
:1052600020230020E367C4F8803020666066CAE728
:1052700010B5044640B3C36F1BB980F87830FEF711
:1052800045FB22682423E367136823F001031360BE
:10529000636A13B12046FFF7A7FE2046FFF792FD91
:1052A000012811D023685A6822F490425A609A6803
:1052B00022F02A029A601A6842F0010220461A601F
:1052C000BDE81040FFF77ABF012010BD002310B5E4
:1052D0000446C0E90033C0E904338360818143663A
:1052E000C2818361194608225C3000F006F90D4B3B
:1052F00063620D4BA3620D4BE3620D4B23630D4BB9
:1053000024629C4206D003F16802944202D0D0335A
:105310009C4205D104F15800BDE8104000F066B988
:1053200010BD00BF7554000897540008CF54000802
:10533000F354000890010020024A0349034800F09A
:1053400069B800BF2C000020995E000838000020DA
:1053500041680C4B994210B5044601D000F09CFD09
:10536000A168094B994202D0204600F095FDE16802
:10537000064B994204D02046BDE8104000F08CBD99
:1053800010BD00BF90010020F80100206002002045
:1053900010B50B4B0B4C0C4A1A602046002204211E
:1053A000FFF794FF04F1680001220921FFF78EFF47
:1053B00004F1D0000222BDE810401221FFF786BFA1
:1053C000C80200209001002039530008014800F075
:1053D0000EB900BFD1020020014800F009B900BF9A
:1053E000D102002010B50446FFF7F0FF236A1BB17D
:1053F000BDE81040FFF7F0BF044B2362044B1B686D
:10540000002BF5D1FFF7C4FFF2E700BF51530008AE
:10541000C80200202DE9F8430746884614460026B6
:10542000D4E90195B9F1010905D52468002CF7D11B
:105430003046BDE8F883AB89012B07D9B5F90E30AA
:10544000013303D029463846C04706436835E9E7AB
:105450000FB407B5064904AB086853F8042B8168FC
:10546000019300F0E9F903B05DF804EB04B0704774
:105470008400002010B50C46B1F90E1000F068F859
:105480000028ABBF636DA3891B1823F48053ACBF06
:105490006365A38110BD2DE9F0411F468B89DB05B3
:1054A00005460C46164605D5B1F90E10022300221A
:1054B00000F03CF8A389B4F90E1023F48053A381C3
:1054C00032463B462846BDE8F04100F053B810B5DF
:1054D0000C46B1F90E1000F029F8431CA38915BF42
:1054E000606523F4805343F48053A38118BFA381E4
:1054F00010BDB1F90E1000F009B802440346934202
:1055000000D1704703F8011BF9E7000038B5064DDC
:105510000023044608462B60FEF760F9431C02D1C5
:105520002B6803B1236038BDCC02002038B5074D8D
:1055300004460846114600222A601A46FEF758F92A
:10554000431C02D12B6803B1236038BDCC0200207C
:1055500038B5074D04460846114600222A601A460F
:10556000FEF720F9431C02D12B6803B1236038BD3C
:10557000CC02002038B5074D0446084611460022EB
:105580002A601A46FEF71CF9431C02D12B6803B1AE
:10559000236038BDCC020020014B1868704700BF63
:1055A0008400002070B50D4D0D4C641BA410002626
:1055B000A64209D10B4D0C4C00F0C0FD641BA41099
:1055C0000026A64205D170BD55F8043B9847013628
:1055D000EEE755F8043B98470136F2E7EC61000826
:1055E000EC610008EC610008F0610008704770474A
:1055F0007047000037B5002944D051F8043C0190B1
:10560000002BA1F10404B8BFE41800F0DFF81E4A33
:105610000198136833B96360146003B0BDE830408B
:1056200000F0DAB8A34208D9256861198B4201BF9E
:1056300019685B6849192160EDE71A465B680BB190
:10564000A342FAD911685518A5420BD12468214408
:105650005418A3421160E0D11C685B6853600C448D
:105660001460DAE702D90C230360D6E725686119D4
:105670008B4204BF19685B68636004BF49192160ED
:105680005460CAE703B030BDD402002070B50E4E9E
:105690000C463168054611B900F0BCFC306021466B
:1056A000284600F0B7FC431C0AD0C41C24F00304B5
:1056B000A04207D0211A284600F0ACFC013001D1ED
:1056C0004FF0FF34204670BDD80200202DE9F8438A
:1056D000CD1C25F0030508350C2D38BF0C25002DF9
:1056E000074601DBA94205D90C233B600026304662
:1056F000BDE8F883DFF8D08000F068F8D8F8003013
:105700001C465CBB29463846FFF7C0FF431C0446D5
:1057100055D1D8F800402646002E45D1002C48D05F
:1057200023683146384604EB030900F073FC8145D9
:105730003FD121686D1A29463846FFF7A7FF01308F
:1057400037D023682B442360D8F80030002B38D0A2
:105750005A68A2422BD100225A600FE02268521BE5
:105760001FD40B2A17D96119A342256018BF5960AD
:10577000636808BFC8F8001062514B60384604F1F6
:105780000B0600F029F826F00706231DF21AAED00A
:105790009B1BA350ABE7A3426268DDD1C8F8002091
:1057A000ECE723466468ACE734467668B4E7134612
:1057B000CCE70C233B60384600F00EF897E72560F5
:1057C000DCE75B60FFDE00BFD40200200148FFF78A
:1057D0000EBF00BFD00200200148FFF709BF00BF85
:1057E000D00200209368013B002B10B4936008DACC
:1057F0009469A34201DB0A2903D15DF8044B00F050
:1058000073BB1368581C1060197008465DF8044B90
:105810007047F8B506460F461446D518AC4201D17C
:10582000002007E014F8011B3A463046FFF7DAFF84
:10583000431CF3D1F8BD00002DE9F04F0D469DB09B
:1058400014469846064618B1036A0BB9FFF7CAFD1D
:105850006B6ED90705D4AB899A0502D4A86DFFF702
:10586000C6FEAB891B0701D52B699BB9294630467B
:1058700000F078FB70B16B6EDC0704D54FF0FF30A1
:105880001DB0BDE8F08FAB899805F7D4A86DFFF780
:10589000AFFEF3E70023099320238DF82930CDF8DC
:1058A0000C803023DFF8B0818DF82A304FF00109E9
:1058B00023469A4613F8012B0AB1252AF9D1BAEBEF
:1058C000040B0BD05B46224629463046FFF7A1FF6A
:1058D000013000F0A980099A5A4409929AF80030E0
:1058E000002B00F0A18000234FF0FF32CDE905230B
:1058F0000AF1010A049307938DF853301A93544622
:10590000052214F8011B5448FDF762FC049AD8B92B
:10591000D10644BF20238DF85330130744BF2B23F7
:105920008DF853309AF800302A2B15D0079A544638
:1059300000204FF00A0C214611F8013B303B092BA7
:105940004DD9B0B1079214E0A0EB080309FA03F3B4
:1059500013430493A246D2E7039B191D1B680391CE
:10596000002BBBBF5B4242F0020207930793B8BF14
:10597000049223782E2B0CD163782A2B34D1039BED
:105980001A1D1B680392002BB8BF4FF0FF3302347F
:105990000593DFF8D4A0217803225046FDF718FCC8
:1059A00038B1049BA0EB0A0040228240134301342B
:1059B000049314F8011B29488DF828100622FDF7DE
:1059C00007FC00283FD0264B1BBB039B073323F06B
:1059D000070308330393099B3B44099368E70CFBD7
:1059E00002320C460120A6E7002301340593194634
:1059F0004FF00A0C204610F8012B303A092A03D93F
:105A0000002BC6D00591C4E70CFB012104460123FD
:105A1000F0E703AB00932A46124B04A93046AFF3DC
:105A200000800746781CD6D16B6ED90705D4AB89A8
:105A30009A0502D4A86DFFF7DBFDAB895B063FF545
:105A40001DAF09981CE703AB00932A46054B04A938
:105A5000304600F079F8E4E7B0610008BA61000868
:105A60000000000013580008B66100082DE9F04757
:105A7000164699468A680B69DDF820809342B8BFC4
:105A80001346336091F8432007460C460AB10133B0
:105A900033602368990642BF336802333360256858
:105AA00015F0060506D104F1190AE36832689B1A5D
:105AB000AB4226DC94F84320131E226818BF012352
:105AC00092062BD404F1430249463846C0470130C0
:105AD0001ED02368226903F00603042B02BFE56889
:105AE0003368ED1AA3680CBF25EAE57500259342DB
:105AF000C4BF9B1AED1800261A34B5421AD10020F3
:105B000008E00123524649463846C047013003D1D8
:105B10004FF0FF30BDE8F0870135C6E7E1185A1CA9
:105B2000302081F84300224494F8451082F8431055
:105B30000233C7E70123224649463846C0470130B1
:105B4000E6D00136D9E700002DE9FF470F7E0C9D16
:105B5000782F914680460C469A4601F1430207D8B9
:105B6000622F0AD8002F00F0D480582F00F0C08098
:105B700004F1420584F842703AE0A7F16303152B63
:105B8000F6D801A151F823F0E15B0008F55B0008AD
:105B9000715B0008715B0008715B0008715B0008B5
:105BA000F55B0008715B0008715B0008715B000821
:105BB000715B0008F95C0008215C0008B35C000818
:105BC000715B0008715B00081B5D0008715B0008D9
:105BD000215C0008715B0008715B0008BB5C000879
:105BE0002B681A1D1B682A6004F1420584F84230B4
:105BF00001239FE020682B68070603F10401296058
:105C000001D51E6803E04606FBD5B3F90060002EFF
:105C100003DA2D23764284F843305A480A2312E0EF
:105C20002B682068191D2960050601D51E6802E051
:105C30004106FBD51E8853486F2F0CBF08230A234B
:105C4000002184F843106568A560002DA2BF21687B
:105C500021F0040121600EB9002D4BD01546B6FB92
:105C6000F3F103FB1167C75D05F8017D3746BB42C1
:105C70000E46F4D9082B0BD12368DE0708D523691B
:105C800061689942DEBF302305F8013C05F1FF351C
:105C9000521B2261CDF800A04B4603AA2146404684
:105CA000FFF7E4FE01304AD14FF0FF3004B0BDE809
:105CB000F087236843F0200323603348782784F873
:105CC0004570236829681F0651F8046B02D45F06EB
:105CD00048BFB6B2DF0748BF43F02003296048BF82
:105CE00023601EB9236823F0200323601023A7E755
:105CF0002448E4E71546BDE72B6826686169181D4E
:105D0000286035061B6801D5196002E07006FBD5D6
:105D10001980002323611546BCE72B681A1D2A60F1
:105D20001D68626800212846FDF752FA08B1401B41
:105D3000606063682361002384F84330AAE7236925
:105D40002A4649464046D0470130ADD023689B07DC
:105D500013D4E068039B9842B8BF1846A6E7012316
:105D6000324649464046D04701309DD00135E36870
:105D700003995B1AAB42F2DCEBE7002504F119064C
:105D8000F5E700BFC1610008D26100088A892DE9EA
:105D9000F041054610070C4658D44B68002B05DC33
:105DA0000B6C002B02DC0020BDE8F081E66A002EBF
:105DB000F9D0002312F480522F68216A2B6032D070
:105DC000606DA3895A0705D56368C01A636B0BB170
:105DD000236CC01A00230246E66A216A2846B047AF
:105DE000431CA38906D129681D292BD8294A0A41B9
:105DF000D60727D400226260D9042269226004D524
:105E0000421C01D12B6803B96065616B2F600029CA
:105E1000C9D004F14403994202D02846FFF7EAFBB7
:105E200000206063C0E701232846B047411CC8D169
:105E30002B68002BC5D01D2B01D0162B01D12F6054
:105E4000B1E7A38943F04003A381ADE70F69002FB9
:105E5000A9D093070E6808BF4B690F6018BF0023D5
:105E6000A6EB07088B60B8F1000F9CDD216AA66ADB
:105E700043463A462846B047002806DCA38943F04B
:105E80004003A3814FF0FF308EE70744A8EB0008E2
:105E9000E9E700BFFEFFBFDF38B50B6905460C46DA
:105EA00013B90025284638BD18B1036A0BB9FFF7AE
:105EB00099FAB4F90C30002BF3D0626ED00704D4F9
:105EC000990502D4A06DFFF792FB28462146FFF703
:105ED0005DFF636EDA070546E4D4A3899B05E1D430
:105EE000A06DFFF785FBDDE7F8B50E4614460546C5
:105EF00018B1036A0BB9FFF775FAA369A360A38908
:105F00001A0725D523691BB323682269981A636988
:105F1000F6B28342374604DC21462846FFF7BCFF31
:105F2000E0B9A368013BA36023685A1C22601E707D
:105F30006269431C9A4204D0A389DB0706D50A2E66
:105F400004D121462846FFF7A7FF38B93846F8BDE7
:105F50002146284600F006F80028D5D04FF0FF373C
:105F6000F4E7000038B52A4B054618680C4618B10E
:105F7000036A0BB9FFF736FAA389B4F90C201807A6
:105F800022D4D90607D409232B6042F04003A38111
:105F90004FF0FF3034E0580712D5616B41B104F186
:105FA0004403994202D02846FFF724FB0023636391
:105FB000A38923F02403A381002363602369236062
:105FC000A38943F00803A38123694BB9A38903F490
:105FD0002073B3F5007F03D02146284600F050F827
:105FE000A089B4F90C2010F001030AD00023A360AB
:105FF00063695B42A361236943B910F08000C4D197
:1060000038BD810758BF6369A360F4E70020F7E754
:106010008400002038B5064D0023044608462B6056
:10602000FDF7E8FB431C02D12B6803B1236038BDA8
:10603000CC02002070B50C46B1F90E10002996B0C4
:1060400015461E460DDAA38913F0800F4FF00001AC
:106050000CBF4FF480634023002031602B6016B0EA
:1060600070BD6A4600F048F80028ECDB019901F4A5
:106070007041A1F50053594259414FF48063EBE759
:106080008B8973B59D0706460C4607D504F1470377
:10609000236023610123636102B070BD01AB6A46D6
:1060A000FFF7C8FF009905463046FFF70FFB48B9D8
:1060B000B4F90C309A05EFD423F0030343F0020344
:1060C000A381E3E7A389206043F08003A381009BC1
:1060D0006361019B20615BB1B4F90E10304600F0A2
:1060E0001DF828B1A38923F0030343F00103A38122
:1060F000A3891D43A581CFE738B5074D002304468A
:10610000084611462B60FDF76CFB431C02D12B683F
:1061100003B1236038BD00BFCC02002038B5064D66
:106120000023044608462B60FDF760FB431C02D1A8
:106130002B6803B1236038BDCC020020F8B500BF46
:10614000F8BC08BC9E467047F8B500BFF8BC08BC58
:046150009E467047B0
:106154004F4B000000000000000000010203040691
:10616400070809000000000102030400A0860100E2
:10617400400D0300801A060000350C0040420F0059
:1061840080841E0000093D0000127A000024F400FF
:1061940000366E010048E801006CDC0204020800CD
:1061A400101010041010100210101008232D302BA2
:1061B4002000686C4C006566674546470030313204
:1061C400333435363738394142434445460030315B
:1061D40032333435363738396162636465660000BA
:0861E400BCD0FF7F01000000A8
:0461EC00B5310008C1
:0461F00091310008E1
:1061F40000093D0001000000100000000000000044
:106204000000000000000000000000000100000089
:10621400000000000000000000000000000000007A
:106224000300000090010020000000009001002005
:10623400F8010020600200200000000000000000BF
:10624400000000000000000000000000000000004A
:10625400000000000000000000000000000000003A
:10626400000000000000000000000000000000002A
:086274000000000038000020CA
:04000005080039A90D
:00000001FF
